S01C00005F5F5F70726F6A6563745F616C6C5F736F757263652E7333373C
S214012000C00A0020D13901002B3C03002B3C030001
S214012010394D03002B3C03002B3C03002B3C0300F3
S2140120202B3C03002B3C03002B3C0300D123010077
S2140120302B3C030054FD030061230100A94F03005C
S2140120402B3C0300C15001002B3C03002B3C03003A
S2140120502B3C03002B3C03002B3C03002B3C0300D2
S2140120602B3C03002B3C0300158401002B3C030092
S2140120702B3C03002B3C03002B3C03002B3C0300B2
S2140120802B3C03002B3C03002B3C03002B3C0300A2
S2140120902B3C03002B3C03002B3C03002B3C030092
S2140120A02B3C03002B3C03002B3C03002B3C030082
S2140120B02B3C03002B3C03002B3C03009522030022
S2140120C01FE503001BE50300291A03002BE50300A7
S2140120D023E503005922030027E503008DFF0200D4
S2140120E0D52203002B3C03002B3C03002B3C0300B2
S2140120F02B3C03002B3C03002B3C03002B3C030032
S2140121002B3C03002B3C03002B3C03002B3C030021
S2140121102B3C03002B3C03002B3C03002B3C030011
S2140121202B3C03002B3C03002B3C03002B3C030001
S2080121302B3C03003B
S214012134F0B5114A114C124E00F00105E3695F0730
S21401214413D40DB9334213D103EA00078F4207D1E2
S2140121540B4A1A40002A0CBF00206FF00100F0BDA4
S214012164013AEBD16FF00200F9E74FF0FF30F6E7E2
S2140121746FF00100F3E700BF80969800000003505B
S214012184020001000B4B70B5D96911F480310DD1F1
S21401219401244FF48072084E084DF46020462C64E6
S2140121A41A61FFF7C5FF3464EC6070BD6FF001007F
S2140121B4FBE700BF0000035000100350002003504B
S2140121C438B541F6713301220C4C0021E569E3630D
S2140121D40B4B05F48035DA6002236061212023610C
S2140121E4FFF7A6FF10B92120FFF7A2FF0122054B36
S2140121F4DA600DB10023E36338BD00BF000003506D
S214012204001003500020035070B5134C6061E3695D
S2140122145B071ED40E4656F8043B8D18A361AE42E6
S2140122240BD10423002121202361FFF781FF58B934
S214012234BDE870402120FFF77BBF08210846FFF761
S21401224477FF10B10423236170BD56F8043BA361E4
S214012254E5E74FF0FF30F7E7000003502DE9F843B8
S214012264154641F67132164B8946DF69DA63012257
S214012274064603F58053DFF8508007F48037DA60AA
S21401228455B9284601220F4BDA601FB10022A3F587
S2140122940053DA63BDE8F88306F5005404EA08043B
S2140122A4A41BAC4228BF2C46494622463046FFF7BB
S2140122B4ABFF0028E6D12644A1442D1BE0E700BF6E
S2140122C4000003500020035000E0FFFF0000000060
S2140122E0013800D0FCE77047000000000000000045
S2140122F00B4A1168086806C881F30B88022181F32E
S2140123001488203080F30988BFF36F8F4FF00000E8
S21401231080F31188104700BFAFF30080AFF3008051
S21401232088B400200000000000000000000000004B
S21401233007480068006880F3088862B661B6BFF394
S2140123404F8FBFF36F8F02DF00BF00BFAFF3008078
S21401235008ED00E0000000000000000000000000A2
S214012360EFF309801EF0100F08BF20ED108AEFF37F
S2140123700B82734620E9FC0F114A116808604FF082
S214012380300080F31188BFF34F8FBFF36F8F07F0D4
S214012390B7F84FF0000080F31188094A1168086801
S2140123A0B0E8FC0F13F0100F08BFB0EC108A82F3F0
S2140123B00B8880F309881847AFF30080AFF30080DD
S2140123C088B40020000000000000000000000000AB
S2140123D01EF0040F0CBFEFF30880EFF309800449E9
S2140123E0084700BFAFF30080AFF30080AFF3008073
S2140123F03559030000000000002370B5404C054627
S2140124008AB0E36318B1008823600EF0F7F83D4800
S2140124102BF0BBFB3C4E3D4B304633603C4B736070
S21401242026F0CAFF0021304619F02AFA32A3D3E972
S2140124300023A062C4E9062326F0C9FFD4E90623D7
S21401244019431043C4E90601CDE900014FF0FF33FB
S2140124504FF0FF32A06A2BF0ECFB02224FF0FF3167
S214012460A06A2BF0EBFB01200DF024FD4FF4007366
S21401247000222849A06A2BF032FCB0F5007F38D143
S21401248000239422CDE9073309933C23CDE9033297
S21401249005939623A06A03A9069319F0D9FA35B3D2
S2140124A0287C0EF04BF90546F0B9A06A2BF0F3FC38
S2140124B00EF0F2F80DF0E0FC20B14FF48070002130
S2140124C00AF068FD0DF0E8FC20B14FF40060002131
S2140124D00AF060FD27F0A1F8012019F027FA0E4A4C
S2140124E00E49A06A26F066FF28460AB070BDFF2096
S2140124F0D7E70725F8E700BF0DD5015520000000F6
S214012500300B0020690345EC28BB002039FD010093
S21401251038BB002028B900205D9303009D9303007B
S2140125200348044B834202D0034B03B1184770475C
S2140125300CD200200CD2002000000000064B0749F8
S214012540C91A891048BF0131491003D0044B0BB199
S21401255001481847704700BF0CD200200CD200205B
S2140125600000000010B5064C237843B9FFF7D8FFEA
S214012570044B13B10448AFF300800123237010BD50
S2140125803CC3002000000000CC2E040008B5054B1B
S2140125901BB105490548AFF30080BDE80840FFF7C9
S2140125A0CDBF00BF00000000980D0020CC2E040017
S2140125B0A3F5803A704700BF174B002B08BF134B9B
S2140125C09D46FFF7F5FF00218B460F461348144A38
S2140125D0121A2BF0EAFF0E4B002B00D098470D4B3A
S2140125E0002B00D098470020002104000D000D4864
S2140125F0002802D00C48AFF3008020F09FF820009E
S214012600290021F056FA20F023F800BF0000080048
S2140126100000000000000000C00A0020C00A0020E0
S21401262000CE002000000000000000002DE9FF4160
S2140126303A4D21F0BCFA002000F0B4F9284600F02B
S21401264019FA4FF000086FF07F4305240127344E36
S2140126502846C5E9013821F045F82846314921F0D8
S214012660A5F932682846531C33602F493B46CDE90D
S21401267001470094D2B221F0ACF932682846D3194A
S21401268033602A494346CDE901470094D2B221F08E
S214012690A0F932682846D319336025494346CDE967
S2140126A001470094D2B221F094F932682846D31932
S2140126B0336020494346CDE901470094D2B221F068
S2140126C088F932682846D31933601B494346CDE959
S2140126D001470094D2B221F07CF932682846D3191A
S2140126E0336016494346CDE901470094D2B221F042
S2140126F070F93B4607222846CDE901471049009468
S21401270021F067F93B460A222846CDE901470D49E3
S214012710009421F05EF904B0BDE8F081B40D00200C
S214012720B00D002014F3030068F203007AF20300F0
S2140127308BF2030099F20300A9F20300B9F2030039
S214012740CAF20300D5F2030000B589B00B46009229
S2140127500A49024605A81FF0D1FF0523012200936E
S214012760CDE9013205A900230822054821F031F9F7
S21401277000F040F909B05DF804FB00BFDCF203008D
S214012780B40D002000B58BB002460B4604A80949DB
S2140127901FF0B4FF052301220093CDE9013204A9FD
S2140127A000230922044821F014F900F023F90BB0A4
S2140127B05DF804FBEBF20300B40D002000B58BB00E
S2140127C002460B4604A809491FF098FF052301227B
S2140127D00093CDE9013204A900230B22044821F01D
S2140127E0F8F800F007F90BB05DF804FB00F30300FE
S2140127F0B40D00200123054A411100F01F0083405B
S21401280052F82100034342F821307047E00D0020C2
S214012810044B1B681BB1044B03600020704701206A
S214012820704700BFF00D0020E0C2002070B50D4CCF
S214012830246884B10C4C85182688B5420DDC668860
S214012840CD18B54209DC52B14BB1A0800020E18021
S2140128502281638170BD0120FCE70420FAE7052090
S214012860F8E700BFF00D0020E0C200202DE9F74F89
S2140128709946494B1B68002B00F08A80B9F1000786
S21401288018BF01274FF0010BDFF814A17F42BAF8F9
S2140128900650BAF80A300D9E2B449BB20D440093A5
S2140128A0FFB2ADB21EB9304603B0BDE8F08F009A54
S2140128B0ABB29A426ED9BAF80840BAF80430241A74
S2140128C0B44228BF34461844344B361B80B203EB5F
S2140128D00512B9F1000F0AD0072C26D80444A042ED
S2140128E016D32846FFF786FF01350020DAE7072CC6
S2140128F01BD80444A042F4D2C108535C00F0070C74
S2140129000BFA0CFC23EA0C030130535480B2F1E7B6
S214012910C10812F801C000F007030BFA03F343EAFB
S2140129200C030130535480B2D9E74FEAD00C02EBC6
S214012930D00810F007000BD1E20839464046019254
S2140129402BF033FE14F00704019ACAD0904412E02B
S2140129500BFA00F312F80CE0DBB2591E5B420EEAEA
S21401296001013B4008381943044402F80C10E20800
S21401297008F10108E1D10BFA04F498F80030E4B24A
S2140129806242013C13403C40234388F80030A8E7EC
S214012990012688E7042686E7F00D00203DC30020C7
S2140129A0E0C2002037B5114D2B68EBB900F054F9A1
S2140129B0044610B1012003B030BD00F041F9286093
S2140129C00028F7D002884188094B20461A801A81D0
S2140129D04A43598059819C80DC802146CDE90042DA
S2140129E023462246FFF742FF0020E4E7F00D0020D1
S2140129F0E0C200202DE9F843002301251A461A4FAC
S214012A00DFF86C803C68DFF86490D8F80000D618D0
S214012A1041888E4207D3FBB91022002112482BF0C1
S214012A20C4FD002012E0E10708D50133D118C9061C
S214012A300ABF57F8254064080135E6E753B109EBAC
S214012A40021120F0F5FF034610B10720BDE8F88318
S214012A50721CEBE70132E9E7044901EB021120F0B1
S214012A60E7FF0028D8D0F0E7E00D00203DC30020A6
S214012A70F00D002030B5054687B000B300226FF098
S214012A807F43C0E9012301A8FFF7C2FE044698B9B7
S214012A90019BCDE902001A882B605B88013A013B55
S214012AA0284602A90492059320F047FE044618B969
S214012AB02846044920F07AFF204607B030BD052499
S214012AC0FAE700BF44F603000122014B1A61704782
S214012AD000F0035013B5044605F02CFB0023012239
S214012AE0217BCDE900324900B0FBF1F1024A0348EF
S214012AF022F063F902B010BDC92A0100080E0020B9
S214012B00F7B508260E4C054604F580531E67407B34
S214012B1005F0BEFC04230B4F02220DF106013846D8
S214012B20ADF8063020F089FF384620F097FFA87BE5
S214012B3005F0AEFC002004F50054266703B0F0BD96
S214012B4000C00350A0CF002070B50646124821F001
S214012B50E0FFB1680022114800F08EF8002304223D
S214012B600321022001F01AFF002335460C4C0422F3
S214012B701946184601F012FF0FCD0FC401222B682B
S214012B8030462360074B1A70FFF7A4FF3046FFF765
S214012B90B7FF002070BD00BF4CFF0300A0CF002090
S214012BA0F40D00203DCB00202DE9F74F80460E4660
S214012BB0174699461546DFF880A01E4CDFF87CB014
S214012BC007EB0903AB42019503D8002003B0BDE82B
S214012BD0F08F08230125CAF8703098F80D0005F02B
S214012BE057FC2A4669462046ADF8005020F025FFDE
S214012BF02A4601A9204620F020FF31461022204611
S214012C0020F01BFF204620F029FF022220460DEB74
S214012C10020120F012FF204620F020FF98F80E0057
S214012C2005F036FC0823019DCBF8703010360135CF
S214012C30C6E700BFA0CF002000D0035000E003503D
S214012C40034B04481B78002B08BF0020704700BFC9
S214012C503DCB0020F40D002030B5064D87B001AC09
S214012C600FCD0FC42B6801A82360FFF76DFF07B0D7
S214012C7030BD00BF74F903002DE9F04F04462D4E18
S214012C8089B001AD894690460FCE0FC596E807007C
S214012C90D4F800B0284B85E807009B4545D003F5DE
S214012CA080439B4543D0254DAB450CBF02254FF0D5
S214012CB0FF35DFF890A022480AEB4517D7F8AC6538
S214012CC021F027FF606821F024FF617B207B002331
S214012CD0042201F063FE0422617A207A002301F0C7
S214012CE05DFE0123584601A98DF81230CDF80C90EF
S214012CF0ADF8148021F05DF80020627A237A2E3533
S214012D0043EA02430AEB451ACAF80430627B237B86
S214012D1006F0040643EA024346F01806C7F8C03533
S214012D20C7F8AC6509B0BDE8F08F0025C1E70125FD
S214012D30BFE700BF88F90300008005500000065079
S214012D404CFF030000C003500346034A07CA83E84A
S214012D5007001846704700BFA4F903002DE9F843A1
S214012D6006460D4600244FF03008DFF844900F4F1A
S214012D70142299F80030204618FB032303F1A043E0
S214012D8003F570331B683A68D34003F001039D4294
S214012D9001D0BDE8F883A64204DB012005F078FBEC
S214012DA00134E5E74FF0FF30F3E700BF340E0020B3
S214012DB03ECB0020034B04221870034B19600123FD
S214012DC001F0ECBD3ECB0020340E00202DE9F0478B
S214012DD0594B4FF03009594D594E0446D8681B7C63
S214012DE088B001270422296800908DF804303078D5
S214012DF0002301F0D3FD42F210013378DFF84C8155
S214012E002A6809FB038307FA02F25A5044F250601B
S214012E1005F03EFB32782B6809FB028841F210026E
S214012E2007FA03F348F80230142005F031FB3B465D
S214012E3002222968307801F0B1FD00215020FFF709
S214012E408DFF013042D039465020FFF787FF013011
S214012E503CD0002700214120FFF780FF013035D00C
S214012E601C2005F015FB14223023317813FB0123B7
S214012E7003F1A04303F570331B682A68D340DB07D0
S214012E800CD5FA43012302F00702934008AA02EB8D
S214012E90E70212F8201C0B4302F8203C4FF0000812
S214012EA04FF030094FF0140A33782A6819FB03A350
S214012EB003F1A04303F570331B68D34013F00102FE
S214012EC014D008F10108B8F1650F0BD11D48FFF7C2
S214012ED03BFF1C4B93E8070084E80700204608B038
S214012EE0BDE8F087012005F0D3FADDE7B8F1640FFD
S214012EF0ECD00137282FADD19DF800109DF8013098
S214012F009DF802009DF803600B449DF804500344AD
S214012F1033449D420B4B0AD00B4A02AE05AD07CA9D
S214012F2086E8070085E8070083E80700D1E7C3E9DC
S214012F3000209960CDE700BFA4F90300340E0020FD
S214012F403ECB0020280E0020B8F9030000C0035035
S214012F507FB5002304220221032001F01FFD032177
S214012F600846FFF727FF00260C4D00F035FA044609
S214012F7001A8FFF72BFF019B6BB9029B2B60039BFC
S214012F804FF47A70064A1360064B5C43B4FBF0F0CC
S214012F9006F064FAE9E700232E60F1E7944E00207C
S214012FA0904E002040420F001FB5084B4FF4805250
S214012FB00293074B07490193062307480093002312
S214012FC022F021FC05B05DF804FB00BF380E00209E
S214012FD0900E0020C4F90300512F0100014B186820
S214012FE0704700BF944E0020014B1868704700BF21
S214012FF0904E00202DE9F0411A4D1B4C00F0ECF9E3
S214013000064600F0EFF90746FFF7E8FF8046FFF7B0
S214013010EBFFC1B25FFA88F0FFF7B4FB2B681348E9
S21401302001333B2B0EDC2B602A6821680068FFF712
S2140130308BFBF0B2F9B2FFF7C1FB4FF47A7006F0E2
S2140130400DFADBE700232168026801313B292B607A
S2140130502160E9DD0132172A2360D8BF13460360D9
S214013060E2E700BFB0CF0020B4CF0020B8CF0020E9
S2140130701FB5084B4FF400620293074B07490193B3
S214013080052307480093002322F0BDFB05B05DF839
S21401309004FB00BF984E0020F04E0020CDF903003F
S2140130A0F52F01001FB5084B4FF480620293074BC2
S2140130B007490193052307480093002322F0A3FB49
S2140130C005B05DF804FB00BFF06E0020486F0020DD
S2140130D0D6F90300A5330100052300B589B08DF8A4
S2140130E004304FF4E13200234FF4A061CDE90232FF
S2140130F04FF48052CDE904124FF4A0220693ADF8A6
S2140131001C30084B0848C3F8C4254FF4C022C3F846
S214013110BC25142201A9C3F8AC2501F0B1FD09B004
S2140131205DF804FB00C003500080055070B50546ED
S2140131300024064E28462BF068FAA04200D870BD3F
S214013140295D304620F07DFE0134F3E7008005500E
S214013150F0B503789BB0303B092B1AD8DFE813F0A3
S2140131600A00280049006F009E00BE0019001900E1
S2140131701900EA0001227F4B7F4901A81A7000243A
S2140131801FF0BCFA7D4E01AD01A82BF03EFAA0421D
S21401319001D81BB0F0BDB3695A06FCD5304615F808
S2140131A0011B20F04EFE0A2006F058F90134EBE729
S2140131B0704B71491A7801A80E2A8EBF012201327E
S2140131C0D2B21A7000241FF099FA6C4E01AD01A814
S2140131D02BF01BFAA042DCD9B3695B06FCD530465E
S2140131E015F8011B20F02DFE0A2006F037F90134F0
S2140131F0EDE70122624C634901A822801FF07EFAA6
S2140132002188002401EB810101EB8101490189B28A
S214013210084600F07BF9594E01AD01A82BF0F5F9EF
S214013220A042B6D9B3695F06FCD5304615F8011B36
S21401323020F007FE0A2006F011F90134EDE7504CA4
S21401324021880B2920D90C234FF4165123800846D8
S21401325000F05CF922884B4901A81FF04FFA0024C0
S214013260464E01AD01A82BF0D0F9A04291D9B36921
S2140132705806FCD5304615F8011B20F0E2FD0A2061
S21401328006F0ECF80134EDE7013189B2218001EB5B
S214013290810101EB8101490189B2D8E73A4C3B48EB
S2140132A0364E206000F000F92268394901A81FF067
S2140132B025FA002401AD01A82BF0A7F9A0427FF65C
S2140132C068AFB3695906FCD5304615F8011B20F0E6
S2140132D0B8FD0A2006F0C2F80134ECE72D4901A832
S2140132E02BF07EF90024254E01AD01A82BF08DF9B7
S2140132F0A04212D805240425274E4FF4FA70C6F8CA
S214013300A05006F0ABF8254B4FF4FA70C3F8A05066
S21401331006F0A4F8013CF0D13BE7B3695A06FCD5A8
S214013320304615F8011B20F08CFD0A2006F096F8B1
S2140133300134DAE7FFF752FE0446FFF755FE224650
S2140133400346174901A81FF0D9F9002605460B4F79
S21401335001ACAE423FF41DAFBB695B06FCD53846F7
S21401336014F8011B20F06DFD0A2006F077F80136EF
S214013370EFE700BFE4D10020E0F90300008005502C
S21401338060D10020F4F90300BCCF002008FA030046
S21401339013FA030027FA030000D0035000E003509D
S2140133A042FA030007B520F05EFBFFF795FE0848DA
S2140133B0FFF7BCFE074CA3691B06FCD5204620F090
S2140133C03AFD8DF8040001A8FFF7C2FEF3E700BF3F
S2140133D065FA030000800550014B1878704700BF5E
S2140133E0E4D10020014B1888704700BF60D100204F
S2140133F02DE9F8431C4F1D4E1D4DFFF7EFFD80468E
S214013400FFF7F2FD8146FFF7E7FF0446FFF7EAFF05
S2140134100A212405000499FBF1F304F4700400F476
S214013420702044EA000298FBF1F401FB139901FBBA
S214013430148809F00F09200342EA090280B24FEA14
S2140134400828024308F470681B01DBB242EA08024E
S21401345028461A4331783A6020F029F94FF4FA6089
S21401346005F0FCFFC9E700BFC0CF0020E5D1002072
S2140134703FCB00201FB5084B4FF400620293074B69
S21401348007490193052307480093002322F0BBF95F
S21401349005B05DF804FB00BF487F0020A07F002038
S2140134A078FA0300F133010030B5134C054693B0AA
S2140134B0207810F031FF00B1FEE7104B009540F286
S2140134C0FF221B6806210E4820F0AEF821780C4832
S2140134D020F0DCF80B4B40211B680B4A02A81FF0BA
S2140134E0D9F802A8FFF722FE0221207810F050FF3B
S2140134F000B1FEE713B030BDE5D10020C0CF0020FB
S2140135003FCB0020BCCF00208DFA030070B5124ED1
S214013510044692B030780D4610F0FEFE034600B128
S214013520FEE700902A462146307810F0BFFE00B133
S214013530FEE70221307810F02BFF00B1FEE72346AC
S2140135404021064A009502A81FF0A4F802A8FFF73A
S214013550EDFD12B070BD00BFE5D10020A7FA030053
S21401356010B50368354A23F47F4323F007039342DB
S21401357088B004D0324A934252D008B010BD0DF143
S2140135800F0104A810F058FF014600B1FEE7BDF890
S214013590143008225BBAADF818309DF813301820A5
S2140135A08DF81A30FF238DF81B30FE238DF81C3062
S2140135B09DF812308DF81D30BDF810305BBAADF8AD
S2140135C01E3006AB10F00AFF00B1FEE71D4C204688
S2140135D010F054FE034600B1FEE74FF4C8620090B7
S2140135E01146207810F062FE00B1FEE70721207830
S2140135F010F07EFE144B40F2FF221B68062100935A
S214013600124B13481B6820F00FF81248FFF78EFD87
S21401361021780F4820F03AF80F48FFF787FDACE70E
S214013620084C0221207810F09FFE00B1FEE702212F
S214013630207810F0ADFE00289FD0FEE7A000010024
S214013640A0000601E5D10020BCCF0020C0CF00209D
S2140136503FCB0020D7FA0300F3FA03007FB50368D7
S214013660244A23F47F4323F0070393423ED10021EB
S21401367008221220204B10F0B1FE014600B1FEE7F1
S214013680032214201D4B10F0A9FE014600B1FEE7EF
S214013690052216201A4B10F0A1FE00B1FEE70DF12F
S2140136A0070102A810F0C8FE014600B1FEE7BDF80A
S2140136B00C3008225BBAADF810309DF80B3018209C
S2140136C08DF81230FF238DF81330FE238DF8143059
S2140136D09DF80A308DF81530BDF808305BBAADF8A4
S2140136E0163004AB10F07AFE00B1FEE707B05DF8C5
S2140136F004FB00BFA000010009FB030012FB03004E
S21401370016FB030007B501A801F00AFA9DF805307B
S214013710012B27D1224A936DDB0313D4536B23F479
S214013720FF0323F4FE4343F4BC1343F4A063536343
S214013730136B23F4704343F440431363136B43F456
S214013740E06313639DF8043063B94FF000531B68C0
S214013750144B1B68144B1B68144B1B68144B1B68DB
S214013760144B1B68144AD2F8803043F00303C2F8A6
S214013770803003F00BFA00F003F921F04CFA21F047
S214013780BCF903F063FA00F0F1F800F035FA00F046
S214013790EDFA05F0A1F803B05DF804EB03F08ABF7B
S2140137A000C00050004000200080002000C0002023
S2140137B000000120004001200080005008B5064BA3
S2140137C0834207D1054B1B7823B1C8B210F0F4FD34
S2140137D000B1FEE708BD00BFA09F00205CCB002023
S2140137E030B500250368344A23F47F4323F00703EA
S2140137F085B0934204460295ADF80C5035D002F5DB
S214013800802293420CD0A2F18272934251D12B4B6B
S2140138101B78002B4DD005B0BDE8304021F057BBDA
S214013820B0F805301B2B44D1FF2304A91A4611E931
S214013830030020F081F9012814BF41F2FC151F4B4B
S2140138404FF01B0108BF187005F0FC02207910F03C
S214013850DBFD00B1FEE71A4900902379194A096891
S214013860194800F033F820B3FEE7B0F80530B7EE9C
S214013870047A07EE903AF8EE677AB0F8073067EE0A
S214013880877A013307EE103AB8EEC77A67EE877A81
S214013890B1EE047A67EE877AFAFE677AFCEEE77A8B
S2140138A017EE903AB3F57A7F38BF4FF47A73044A2D
S2140138B0136005B030BD00BFA00006025CCB00203F
S2140138C0C4CF0020BD370100A09F00202DE9F7439B
S2140138D0054690461F469DF8289049B9B9F1000F54
S2140138E039D1002814BF2120222003B0BDE8F0837F
S2140138F078B34FF47A7303FB01F404F2E7349C4285
S214013900B4FBF3F627D320F026F9012801D10120D4
S214013910EBE7144B314600934A462B461248019575
S21401392021F0BDFF0646C0B1C5E90B086F6385F8F7
S2140139303C9005F093FC00240246234601213046C4
S214013940009406F023F8012809D0284620F003F950
S214013950DDE72220C9E72120C7E71920C5E7204671
S214013960C3E700BF473B030048FD030008B5034813
S21401397021F0CFF8BDE8084020F0B1B84CFF0300B5
S214013980014821F0C6B800BF4CFF030007B5082068
S21401399020F078F902238DF80030054B6846019334
S2140139A020F007F9082003B05DF804EB20F075B9A4
S2140139B0006A18100348044A0449121A921020F0AB
S2140139C035B900BF34210100D422010000CE002009
S2140139D008B500F02FF8FFF7EDFF124B12498B42A6
S2140139E012D30020114B12498B4218D3FEF7E4FD87
S2140139F0186850F82240586840F82240013298680A
S214013A008242F5D30C33EAE70022F8E71C6844F853
S214013A10220001325C68A242F8D30833E4E70022B0
S214013A20F8E700BFD42E0400E02E0400E02E0400C8
S214013A30E02E0400124B134A70B59A60D3F8882022
S214013A40114D42F47002C3F888206FF0010205F5AB
S214013A500054226641F2FF7262660222C3F8D02049
S214013A60BFF34F8FBFF36F8F4FF44036032003F041
S214013A70CBF80320E66003F0B9F82E6170BD00BFF5
S214013A8000ED00E00020010000800044014B1868B2
S214013A90704700BFCCCF0020014B1860704700BFB5
S214013AA0CCCF0020084B1B6F03F00703022B04D07A
S214013AB0032B05D0012B05D0FEE7044B1868704791
S214013AC0034BFBE70348704700800050CCCF002033
S214013AD0D4CF0020002D310108B5FFF7E3FF054BD9
S214013AE01B6FC3F301330133B0FBF3F0024B1860D5
S214013AF008BD00BF00800050C8CF002000487047B6
S214013B0000B4C404014B1868704700BFD4CF00202E
S214013B10054B1860054B1B6F03F00703032B01D100
S214013B20FFF7DABF704700BFD4CF002000800050F7
S214013B3000487047002D3101174B9868C0F30440C8
S214013B400C280AD8DFE800F00B0909090909072142
S214013B5019091B1D1F0011487047002070479B68FC
S214013B6003F04073B3F1807F11D0B3F1007F10D022
S214013B700B4A002B08BF104670470A4870470A4890
S214013B8070470A4870470A4870470A4870470A480B
S214013B9070470A48704700BF0040015A405DC600A2
S214013BA000093D00C0EA210180BA8C010048E80105
S214013BB0005A62020024F40080841E0040420F0076
S214013BC0014B1868704700BFD0CF002000239B6AC6
S214013BD0B3F5903F03D21968064A914203D00023F9
S214013BE0037083607047012202709A689B69426085
S214013BF0F7E700BF07B0CD5E00239B6A10B5B3F5AB
S214013C00903F11D219680A4A91420DD1094C227887
S214013C1012F0FD0F01D0002010BDDB699847002887
S214013C20FAD101232370F6E74FF48170F4E700BF61
S214013C3007B0CD5E5DCB00204FF00053014A1A60FD
S214013C4002F0C2BF02020FF0034B5868C0F308002F
S214013C50003818BF0120704700ED00E013B50024BE
S214013C602948019420F055FF012304220321204610
S214013C7000F094FE204620F084F80122234B052014
S214013C80C3F8442401A920F03AFF002839D1204B7B
S214013C90D3F8F02042F00102C3F8F020D3F8FC205C
S214013CA042F08072C3F8FC201A4AA3F55D431A60FD
S214013CB0019B194A03F5D52303F2FC43B3FBF2F348
S214013CC0164A013B13610223C2F8F0304FF48073A9
S214013CD0C2F804334FF06043114AC3F8B02F114ABB
S214013CE0C3F8802ED3F8002E42F48072C3F8002E5B
S214013CF0FF2283F82020D3F8002E22F48072C3F826
S214013D00002E02B010BD00BF4CFF030000D00350D0
S214013D1000ED00E0FF030040F8590D00000004E04C
S214013D2055CEACC5090001004FF06043D3F8802E94
S214013D3030B5D20715D501240B4D8440D5F8FC20AB
S214013D4042F08072C5F8FC20D3F8002E2243C3F857
S214013D50002E53F82020002AF0D003F8201000206F
S214013D6030BD1120FCE700BF00ED00E0024B1968F2
S214013D70024B186817F090B9D8CF0020F8CF002072
S214013D8070B59400224605460E462BF065FA431C94
S214013D900AD058B92246314628462AF0DCFB0028CC
S214013DA0034808BF002070BD0248FCE70248FAE756
S214013DB010E000F021E000F024E000F010B5044629
S214013DC02BF04EFA431C10D088B900F0D1FE2346E2
S214013DD020F003002044984201D1002010BD53F882
S214013DE0042B0132F7D00348F8E70348F6E7034807
S214013DF0F4E700BF0EE000F021E000F024E000F060
S214013E0008B51FF027FF014B186008BDD0A600209B
S214013E10014B18681FF022BFD0A6002041F671336F
S214013E20124A30B5D469124DD3639368A84204F49C
S214013E30803423F4401306D893600E4AD2F8183221
S214013E4023F002030AE043F4801393600A4B98427E
S214013E50F3D9084AD2F8183243F00203C2F81832EE
S214013E6014B10022014BDA6330BD00BF00000350DD
S214013E70005A620200C0075080F0FA022E4B9842A8
S214013E804AD022D82D4B984240D014D82C4B984279
S214013E9039D00AD82B4B984232D02B4B98422FD090
S214013EA02A4B98422CD000207047294B9842FAD1D1
S214013EB0284B186F7047284B98422AD0274B9842B8
S214013EC0F1D1244BD3F880007047254B98422BD074
S214013ED009D8244B984223D0234B9842E3D11D4B5B
S214013EE0D3F88C007047214B984221D003F5740318
S214013EF003F510539842D6D1164BD3F89800704765
S214013F00144B986D7047134B586E7047114B586F92
S214013F107047104B986F70470E4BD3F8840070476C
S214013F200C4BD3F8880070470A4BD3F890007047C3
S214013F30084BD3F8940070470048E8010024F400C9
S214013F40C0CF6A0080841E0000093D0040420F0079
S214013F50405DC6000080E00FC0EA210180BA8C01F6
S214013F60007E560380D54302006CDC020090D0032D
S214013F7038B5134B0546D3F820010C4600F0070070
S214013F8004281AD8DFE800F003090D1115000123F3
S214013F9005B1286004B1236038BDFFF777FD04231F
S214013FA0F6E7FFF7AFFD0323F2E7FFF7C5FD0523AD
S214013FB0EEE7FFF7BDFD0223EAE700231846E7E731
S214013FC00080005037B50C460021114B0191D3F803
S214013FD08031054603F00303022B0ED0032B11D0CC
S214013FE0012B03D101A8FFF7C3FF0D210DB1019BE2
S214013FF02B6004B1216003B030BDFFF79DFD0521A4
S2140140000190F3E7FFF794FD02210190EEE700BF70
S2140140100080005038B5104B0546D3F840310C46A9
S21401402003F00303022B0BD0032B0DD0012B0FD172
S2140140301FF00AFE082305B1286004B1236038BDCD
S214014040FFF7BEFD0723F6E71FF001FE0923F2E79F
S21401405001230020EFE700BF0080005038B5104B69
S2140140600546D3F860310C4603F00303022B0BD050
S214014070032B0DD0012B0FD11FF0E6FD082305B150
S214014080286004B1236038BDFFF79AFD0723F6E7E1
S2140140901FF0DDFD0923F2E701230020EFE700BF53
S2140140A00080005038B5144B0546D3F800020C4684
S2140140B000F0070004281BD8DFE800F003090D1103
S2140140C01500012305B1286004B1236038BD1FF037
S2140140D0BBFD0823F6E7FFF773FD0723F2E71FF0A2
S2140140E0B6FD0923EEE7FFF7F7FC0C23800AE9E7A4
S2140140F000231846E6E700BF0080005038B5144B91
S2140141000546D3F808020C4600F0070004281BD821
S214014110DFE800F003090D111500012305B1286041
S21401412004B1236038BD1FF08FFD0823F6E7FFF7C3
S21401413047FD0723F2E71FF08AFD0923EEE7FFF7A5
S214014140CBFC0C23800AE9E700231846E6E700BF0C
S2140141500080005038B5104B0546D3F840320C4667
S21401416003F00303022B0BD0032B0DD0012B0FD131
S2140141701FF06AFD082305B1286004B1236038BD2D
S214014180FFF71EFD0723F6E71FF061FD0923F2E79F
S21401419000231846EFE700BF0080005038B5104BEB
S2140141A00546D3F800310C4603F00303022B0BD06F
S2140141B0032B0DD0012B0FD1FFF7A4FC032305B170
S2140141C0286004B1236038BDFFF7FAFC0723F6E741
S2140141D01FF038FD0623F2E701230020EFE700BFBA
S2140141E00080005038B50C4605461FF033FD054BE0
S2140141F09A6A54402C4054409C62BDE838401FF0F7
S2140142002DBD00BF00C00050032814D005D80128DA
S21401421005D0022809D0002005E00F28FBD1084B65
S214014220186FC0F3013001307047054BD3F890008A
S214014230C0F30460F7E7024B186FC0F38020F2E783
S214014240008000501FB500230193252817D8DFE80A
S21401425000F0131A1D272C363B51565B60656A78B1
S214014260161A401616561A272C27361A5127783B47
S2140142703B3B3B2727275B60FFF714FC0190019827
S21401428005B05DF804FBFFF727FCF7E7FFF70AFC2C
S21401429002460220FFF7B8FFB2FBF0F20192EEE70A
S2140142A0FFF71AFC02460320F4E7FFF715FC024667
S2140142B00320FFF7A9FFB2FBF0F25208EEE7002158
S2140142C001A8FFF77FFEDAE7002101A8FFF750FEFD
S2140142D0D5E702934FF0E0231B695B0705D5FFF78F
S2140142E0FBFB0290029B0193C9E703A902A8FFF713
S2140142F091FEF7E7002101A8FFF78CFEBFE700213A
S21401430001A8FFF7ABFEBAE7002101A8FFF7CAFE36
S214014310B5E7002101A8FFF7F1FEB0E7002101A8EB
S214014320FFF73CFFABE7094BD3F8803003F00303FC
S214014330022BA8D0032B01D000209FE7FFF7FCFB40
S2140143409CE7002101A8FFF705FF98E700800050D1
S21401435008B50120FFF776FFBDE80840034988420B
S21401436094BF01210221032000F002B880F0FA0276
S214014370032810B50C4627D004D8012804D00228FB
S21401438017D010BD0F28FCD11FF0C8FC1FF0CEFCC3
S214014390124A013C136F23F4405343EA0433136774
S2140143A0FFF79AFB0021FFF739FDBDE81040FFF744
S2140143B0CFBF0A4A4C1ED2F8903023F0F85343EA96
S2140143C00463C2F89030DCE7044A4C1E136F23F4F2
S2140143D0806343EA84231367D3E700BF008000505D
S2140143E01FB500230193252821D8DFE800F013200C
S2140143F02020202A2F454A4F54595E712020342010
S214014400204A202020202A204520712F2F2F2F20C0
S21401441020204F54314B1B6F03F00703013B032B46
S21401442005D8DFE803F00C02080A0423019301987B
S21401443005B05DF804FB0323F8E70623F6E702233D
S214014440F4E7002001A9FFF7BDFDF0E7002001A970
S214014450FFF78EFDEBE702934FF0E0231B695B0746
S21401446005D5FFF739FB0B230393039BDEE703A96F
S21401447002A8FFF7CFFDF8E7002001A9FFF7CAFD64
S214014480D5E7002001A9FFF7E9FDD0E7002001A943
S214014490FFF708FECBE7002001A9FFF72FFEC6E7CE
S2140144A0002001A9FFF77AFEC1E70C4BD3F8803054
S2140144B003F00303022B03D0032B05D00023B5E73B
S2140144C0FFF70AFB0B23B1E7FFF736FB0523ADE742
S2140144D0002001A9FFF73EFEA9E700BF00800050BB
S2140144E0024A536A23F001035362704700C0075023
S2140144F008B5FFF775FF07280ABF024B4FF6FF7096
S214014500188808BDD2D1002008B5FFF769FF032837
S2140145100ABF024B4FF6FF70188808BDD0D10020A5
S21401452038B50546FFF7AAFC204B04465A68012A0F
S21401453004D11F494A609A699207FCD10020FFF70F
S2140145404FFF042803D11FF0E9FB1FF0EFFB194AC8
S21401455024F0407395421FD0174A95421FD0174A40
S214014560D16811F0060FFBD19068936091684B40BB
S21401457013F4F81F16D12846FFF78EFA0020FFF72E
S2140145802FFF042810D1FFF7A7FA0021FFF746FCFA
S214014590BDE83840FFF7DCBE43F00073DFE743F0C9
S2140145A08073DCE79060E9E738BD00BF00C00150CA
S2140145B000E0015040420F0080841E0000000150C0
S2140145C0F8B504460020FFF70BFF032800F08180B2
S2140145D045F60E0302213F4AC2F880303E4B9962EF
S2140145E0012103F580539962936DD903FCD4D4E974
S2140145F000131B0543EA0163E17B94F820500B434B
S214014600217BE77E43EA0143617B6D0143EA013387
S214014610A17B43EA811313619169D4E904031B0664
S21401462043EA806301F000410B43A17E94F8230026
S2140146300B43217E43EA0143617E43EA01239361F2
S214014640136AE66923F00D0394F8221043EA870300
S21401465066BB1362966A94F8213045EA031326F086
S21401466033052B4343F0010393621C4D194A936DA6
S21401467035EA0303FBD10225174B9D62936D5B0060
S214014680FCD41369A56823F4700343EA0553136148
S2140146904FF00042104B9A6119B9022203F580537C
S2140146A09A6278B901220E4B9A620BE0334343F0CB
S2140146B008031362936A23F0330303432B4343EA4D
S2140146C04103936294F824301BB1024B054AC3F8A8
S2140146D08020F8BD00C0005000D00050030001400B
S2140146E000E00050F1A7FFFF70B5184CFF28A66A3E
S2140146F02AD8A36D13F4803F18BF0122144B18BFAC
S2140147009A6202229A62A56D15F08045FBD1114A84
S214014710A36992F9002023F47F03024423F47F4324
S21401472082F3080243EA002343EA0243A3613146C7
S2140147300220FFF757FDA36DDB0303D531460120A9
S214014740FFF750FD284670BD2125FBE700C000504D
S21401475000D000505ECB0020014B93F9000070475B
S2140147605ECB002001231248124A816A9362836D50
S21401477003F00303032BFAD1022393620C4A936DD1
S2140147805800FCD40C48936D30EA0303FBD1012298
S214014790084B1A65A3F580539A6D9207FCD49A6D5F
S2140147A09007FCD59A6D9207FCD50320FFF71ABD3A
S2140147B000C0005000D0005003000100F0B5D0E961
S2140147C001434FF4D1560227164A417805785662BE
S2140147D0154E4F2977604FF0010728BF4F2106F588
S2140147E0805677601669F603FCD441EA05215161CB
S2140147F01B01417B43EA04230B43017B43EA41034C
S2140148009360C37B817B1B0143EA4113417C0B43CD
S214014810017C43EA41035360837C13B16FF4D153A7
S2140148205362F0BD0000025000100250014B188088
S214014830704700BFD2D10020014B1880704700BFDF
S214014840D0D10020284B984242D01AD8A3F5B703FE
S214014850A3F55863984237D00CD8244B984225D0FC
S214014860234B98422AD0234B984217D00023224A42
S21401487093607047214B9842F8D1214BD3F8BC3056
S2140148801FE0204B984227D01F4B984228D01F4B41
S2140148909842EBD11A4BD3F8C83012E0184BD3F834
S2140148A0A03023F0407343F00073E0E7144BD3F8D5
S2140148B0A03023F0407343F08073D8E7104BD3F851
S2140148C0A03023F04073D2E70D4BD3F8B830F8E7A9
S2140148D00B4BD3F8C030F4E7094BD3F8CC30F0E7F4
S2140148E0074BD3F8D030ECE7C0EA210180841E00E4
S2140148F000093D0040420F000040015A0024F40028
S2140149000080E00F0048E801005A620280BA8C017C
S2140149100C4A10B51369044643F00403136103F00F
S2140149203FF91FF01BFA084B084AC3F8202430BF92
S2140149301FF015FA03F056F91CB9BDE81040FFF751
S214014940CBB810BD00ED00E000E003500000FFFF13
S2140149500A4A10B51369044643F004031361084B71
S214014960084AC3F8202403F01BF930BF03F03AF9D4
S2140149701CB9BDE81040FFF7AFB810BD00ED00E070
S21401498000E003500000FFFF034A0179D36E23F0D5
S21401499030030B43D366704700400050F8B5044619
S2140149A00D461F4616464AB101238B403021184A50
S2140149B001FB0022F7B141F21001535004EB44030E
S2140149C0072D4FF00F014FEA031316D8A80006FA79
S2140149D000F281400F4818441FF0C4F94EB9012374
S2140149E030210B4AAB4001FB042277B141F21001A2
S2140149F05350F8BD42F21001DFE7A5F10800800030
S214014A0006FA00F281400448E5E742F21001EFE7BA
S214014A1000C0035004C003500CC0035041F671326D
S214014A20034BDA63012203F50053DA60704700BFD7
S214014A300000035041F671320121044BDA6303F59D
S214014A400052D1600022DA63704700BF00000350B5
S214014A50CB784A7810B55B010C7843EA82030A7971
S214014A60234343EA02130C22424302F1B04213638A
S214014A70012C02BF8A78024B43F8202010BD00BFEC
S214014A80D080035008B54FF0B0435A686AB958B1A0
S214014A905B680BB11FF076F901210D4B59601FF0D1
S214014AA071F94FF0B043D96008BD5B680BB11FF0D8
S214014AB069F90028F0D11FF065F94FF0B0430222E2
S214014AC0DA601FF05FF90122024B5A60ECE700BF83
S214014AD000100058002000584FF0B0414B6810B548
S214014AE00BB11FF04FF901220B4BC4785A60837843
S214014AF0934043EA840344782343047943EA041346
S214014B00447943EAC4038B60044B5A600378C3F1CB
S214014B100203CB6010BD00BF0020005800100058F3
S214014B20054B5B69C3F38512827003F03F021B0BD2
S214014B3042700370704700BF00C0075040F6B7329E
S214014B40064B5B689BB293429FBF4FF47A72B3FBEE
S214014B50F2F3034AD05C88BF002070470080E00F64
S214014B60C5FD0300014B986CD96C70470080E00FBF
S214014B700120034B9B680A3303F01F0398407047DC
S214014B800080E00F0D4B984208D1A3F50033C3F81F
S214014B908411C36D43F08003C3657047084B984288
S214014BA004D1A3F51033C3F89411F2E7054B9842EC
S214014BB004BFA3F52033C3F8A411EAE7008005502B
S214014BC000C005500000065070B5054616461C4646
S214014BD019B90320FFF736FB0146402C1BD003D83A
S214014BE0DCB1202C1BD070BD602CFCD1042303FB50
S214014BF006F2530803EB4113B3FBF2F3094A203BD9
S214014C0002EAC303AA6822F06002AA60AA681443F3
S214014C10AC60EB61E7E70623E9E71023E7E7082343
S214014C20E5E700BFF8FF7F00012200F580535A60D8
S214014C3040F6AA6341F20502436100230D498360F1
S214014C40C365C26000F500520361C361C364916429
S214014C5009498365884203D103650023436506E05D
S214014C6006498842F8D001F580418842F4D00123F4
S214014C7053607047FFFF01000080055000C00550DB
S214014C8070B50D46FFF7D0FF012300F5805673601F
S214014C90AB7C04461BB1836843F080438360EB7CA6
S214014CA01BB12046297DFFF76DFF2A8A6B7B2046C4
S214014CB01343EA891343E3602B7BD5E90112FFF71F
S214014CC083FF6B7D1BB1A36843F48033A360AB7D88
S214014CD01BB1A36843F40043A360EB7D2A7E1B0748
S214014CE0120502F4E00203F0E0431343A365697E74
S214014CF01F4A8B1E012B1F4B1DD8944217D002F55D
S214014D008042944215D002F5804294420CBF0222A2
S214014D104FF0FF3203EB4213022041F2AC5203295B
S214014D20985020D10423F3652B78636170BD00226F
S214014D30F0E70122EEE7944211D00F4A944210D0D8
S214014D4002F5804294420CBF02224FF0FF3203EB81
S214014D504213022042F2AC5201299850E1E70022A8
S214014D60F5E70122F3E7042204F50053DA65DBE7F1
S214014D700080055000C0035000C0055038B50446F9
S214014D80054D28F090FF0FCC0FC594E80F0085E87D
S214014D900F00002038BD00BFD4A6002047F6FF73E1
S214014DA09A42F0B572D0022972D83A4B5B5C022B5C
S214014DB06ED8394DDF0005EBC304A17815F8333002
S214014DC0012938BF0121012B13D10025E078401AB3
S214014DD0A84202D80844C0B2F0BD431B6668A0EBE7
S214014DE0530336F913609642D4BF1D4603F1FF30D4
S214014DF0EEE760680028EFD0B0F90040944204DB8B
S214014E00B0F902409442B8BF144683883D44FF2B54
S214014E1019BFC8224FF0280CB0F90620B0F908C017
S214014E20A2EB04030CBF0126002693FBFCF33344DC
S214014E306E781BB29E4201DD002B01DA731E1BB297
S214014E404FF47A7C01339BB2071D5D1E2DB24FEAEB
S214014E50C50E00EBC505EA88AD689E4214FB0252FA
S214014E6022EAE27202F15C02B2FBFCF204DD37F8E0
S214014E70335001339542E8D200EB0E0398889042F6
S214014E8028BF1046884238BF0846A4E7FF20A3E79C
S214014E900020A1E7C8FD0300D4A600200229F0B532
S214014EA060D8314B595C02295CD8304B13F831007D
S214014EB0012816D103EBC1039C78D878012C214632
S214014EC038BF0121904294BFC1EB0001C1EB020142
S214014ED0001BCAB28242C8BF00225B6833F91200C7
S214014EE0F0BD002A3CD003EBC1035968002939D034
S214014EF09878904202D3B1F90200F1E7DC78B1F973
S214014F0000009442ECD95C788B88013CA3F1FF0643
S214014F10734201F10405E4B2734101F10C07DEB2FC
S214014F20B44216D805EBC3034FF47A756A43B3F956
S214014F3002405B68D21A04EBD47302EB630292FB65
S214014F40F4F29042CCDBB1F902009042C8DC10B218
S214014F50C6E737F833C05E1C9445E3D33346DEE735
S214014F600348BDE70348BBE7C8FD0300D4A60020FD
S214014F700CFEFFFF0080FFFF08B50448FFF7FEFEAA
S214014F80BDE80840012028F092BE00BFCCFD03001A
S214014F9000487047D4D100207FB50222084B09494A
S214014FA0CDE901234FF00073CDE90313052301A9D1
S214014FB04FF0FF30059328F0AAFE07B05DF804FB1A
S214014FC0006A1800000204002DE9F04103F09EFC7F
S214014FD00128074624D903F0CDFC051E03DA012477
S214014FE02046BDE8F081204B1B78002B3AD10024E7
S214014FF04FF050081D4E06F110033046C6E9004436
S214015000B360C6F80C8003F07DFD306680B90124DC
S214015010012FE5D9284603F0CFFC0028E0DADEE7C9
S214015020114B1B7803F0FF05002BE0D00024D7E7D7
S2140150300F4E214606F1100332460120C6E9004410
S214015040C6E9023803F028FE30660028DFD00321C7
S214015050012001F0E7FD012001F0C8FD0122024B0D
S2140150601A70D5E70024D5E75FCB002058A70020AB
S214015070F4A6002008B503F049FC022809D1064B26
S2140150804FF0FF31186E03F087FD003818BF01207E
S21401509008BD0020F9E700BF58A7002008B503F0B7
S2140150A035FC022807D1054B186E03F0A5FD003824
S2140150B018BF012008BD0020F9E700BF58A700204F
S2140150C008B54FF098435B6CD90208D503F01EFC77
S2140150D00238012803D8094B186E03F06BFE4FF017
S2140150E098435A6CD202FCD55B6D054A03F47023D3
S2140150F013600120BDE8084001F086BDF4A600203B
S214015100FCCF002010B5044600283BD0FFF7B2FFC5
S214015110002838D120461FF0E4F894F8203043B92F
S2140151204FF098435A6CD202FCD55C6D04F470249F
S21401513012E04FF09844A36D43F00203A36503F019
S214015140E5FB022810D0A36D23F00203A3654FF4FC
S214015150A0220D4B1C681A60FFF7A0FF9CB12046E9
S214015160BDE810401EF083BE084B4FF0FF31186EAD
S21401517003F0EAFDA36D23F00203A3650028E6D041
S214015180012000E0212010BDFCCF0020F4A6002065
S2140151902DE9F0418CB08846DDE912761D460446BD
S2140151A0002847D0002945D0002F43D0002E41D0FB
S2140151B013F00F033ED120482049A360002A08BF00
S2140151C00146E361C4E90013404609A91EF03CFF0D
S2140151D068BB204609991FF07BF8294620461FF038
S2140151E077F8694640461EF0DDFF00BB694620465B
S2140151F01FF05AF8404603A91EF0DFFFB8B9204653
S21401520003A91FF051F806970127204645F00055DF
S21401521006A9079708951FF047F8204609A9099699
S2140152200A970B951FF04AF82046FFF76BFF0CB064
S214015230BDE8F0812120FAE7000100040001010425
S2140152402DE9F0418CB0884616461D460446129F4D
S21401525000284BD0002949D0002A47D0002F45D03E
S2140152600B68103B102B41D8214A22FA03F3D907C9
S2140152703CD500231F4A8360C0E90023C36109A906
S21401528040461EF0E1FE70BB204609991FF020F84B
S214015290294620461FF01CF8694640461EF082FF4C
S2140152A008BB694620461EF0FFFF404603A91EF0D4
S2140152B084FFC0B9204603A91EF0F6FF0696012614
S2140152C0204606A945F00055079608951EF0ECFF06
S2140152D0094B204609A909970A960B931EF0EEFF83
S2140152E02046FFF70FFF0CB0BDE8F0812120FAE75A
S2140152F0010101000000040410000020F0B50C4676
S21401530017461E46054695B0002874D0002972D06F
S214015310002A70D0002B6ED0036B0F2B5BD80023B6
S214015320364A3846C4E90023A360E36111A91EF09A
S2140153308BFE00285BD1204611991EF0C9FF296B10
S21401534020460F2984BF01F00F0110311EF0C0FF67
S214015350384602A91EF026FF002848D1204602A999
S2140153601EF0A2FF384605A91EF027FF00283ED1F1
S214015370204605A91EF098FF0122214B08950992A7
S2140153800A932B6B05F1100003F00F0141F0005159
S2140153900B900F2B0C920D910E900F9243F0005232
S2140153A0109226D90A9B08A923F0005320460A9397
S2140153B01EF07AFF0BA920461EF076FF01231196F8
S2140153C012930F4B204611A913931EF077FF204628
S2140153D0FFF798FE0BE000F12003019000930122F5
S2140153E0102339462046FFF7D3FE002897D015B084
S2140153F0F0BD0EA9DFE72120F9E700BF0000040495
S214015400100000202DE9F04F9BB00C4690461F4639
S2140154100546DDF89090002800F0B280002900F0E3
S214015420AF80002A00F0AC80002B00F0A980026B50
S21401543002EB09031B09B3EB121F02F00F0600F083
S214015440978000234F4A8B60C1E90023CB61404619
S21401545017A91EF0F9FD0346002840F0858006EBEB
S214015460090B204617992BF00F0A1EF031FF514603
S21401547020461EF02DFF404602A91EF093FE03466D
S214015480002871D1204602A91EF00EFF404605A94C
S2140154901EF093FE0346002866D14FF001080190E6
S2140154A005A920461EF000FF374A204608A90895A0
S2140154B0CDF824800A921EF0F7FE46F00051AAEBC2
S2140154C0060605F1100346F000560B93CDF8308022
S2140154D00D910E97CDF83C8010960D99204621F03F
S2140154E000510D910BA900931EF0DEFE20460EA979
S2140154F01EF0DAFE019B244A1193AAF1100343F031
S2140155000053CDF84880139305F120031493CDF88A
S21401551054801692139B204643F080431393139BAB
S21401552011A923F0005313931EF0C8FE204614A9B8
S2140155301EF0C4FE144A17A920461795CDF86080C0
S21401554019921EF0BBFE2046FFF7DCFDAAEB0B010D
S21401555049440190ABEB0A020098394429F048F817
S214015560019B2A6B4A442A6318461BB0BDE8F08F9C
S21401557010304A463946304429F03AF80023F0E71D
S2140155802123F1E703020004100000202DE9FF4764
S2140155904FF000080E4617460446CDF80080002856
S2140155A059D022B90025284604B0BDE8F087002965
S2140155B051D032F0030902F0030A1FD04FF0E06326
S2140155C0C0E9003801230191C0F808800293C0F8B1
S2140155D01C8049F0005301A903931EF06FFE494653
S2140155E020461EF075FE2046FFF78CFD054628B1C5
S2140155F04A464146304628F0D8FFD4E7BAF1000FB4
S214015600D0D04FF000084FF0E063C4E90038012322
S214015610CDF804D00293114B204601A9C4F80880A6
S214015620C4F81C8003931EF049FE042120461EF098
S2140156304FFE2046FFF766FD054608B13A46D8E715
S214015640009A4E44EB00013522FA03F3AA4506F808
S214015650013BF7D1A6E72125A5E700BF04000020FE
S214015660F0B50F4616461D46044693B010B92120E4
S21401567013B0F0BD0029FAD0002AF8D0002BF6D0DE
S214015680002331461A4638461EF083FC0028EFD127
S214015690304602A91EF028FC0028E9D138683449B2
S2140156A0029A88426B695ED19342E0D32B68002B45
S2140156B0DDD14FF060623846C4E90023A360E361A0
S2140156C001A91EF0C1FC0028D2D10199204621F47F
S2140156D0F06101911EF0FCFD694628461EF0B4FCFF
S2140156E00028C5D1204600991EF0F2FD384609A9CA
S2140156F01EF058FD0028BBD1204609A91EF0D4FD96
S21401570038460CA91EF059FD0028B1D120460CA937
S2140157101EF0CAFDEB684BB1284606A91EF042FDF5
S2140157200028A5D1204606A91EF0BEFD304603A9D5
S2140157301EF043FD00289BD1204603A91EF0B4FDB0
S21401574028460FA91EF039FD002891D120460FA941
S2140157501EF0B4FD03252046FFF7D4FC012887D1AF
S214015760013DF8D184E7B3EB420F9FD27FE700BF3C
S214015770200000B070B50E46154604468AB00028D3
S2140157805CD000295AD0002A58D0012329461A464F
S21401579030461EF0FEFB00284ED1B36813F4C04F0E
S2140157A04CD0AB6803F4C043B3F5005F46D1254B3C
S2140157B0A060C4E90030E06107A930461EF044FC51
S2140157C0002839D1204607991EF082FD0123029355
S2140157D04FF00053204601A903931EF065FD3046A5
S2140157E004A91EF0EAFC38BB204604A91EF05CFDA5
S2140157F0EB681BBBAB6803F4C043B3F5005F1DD178
S214015800694628461EF093FBB0B9009B6A699A4226
S21401581016D32A6943F0005307920122204607A9AE
S2140158200892032509931EF049FD2046FFF76AFCFE
S214015830012801D1013DF8D10AB070BD2120FBE756
S2140158401D20F9E7000001021FB5044698B191B189
S21401585000230A4A8360C0E90023C3610123019142
S2140158600293074B01A903931EF028FD2046FFF77C
S21401587049FC04B010BD2120FBE700BF000008432F
S2140158800400002038B5134DFFF79EFB124B134A58
S2140158901349144805F0D2F82B7803F0FF04BBB97E
S2140158A003F034F8012802D903F064F804462B7893
S2140158B02BB90D4B0D481B68984701232B7003F03D
S2140158C025F8012804D92046BDE8384003F074B80D
S2140158D038BD00BF60CB00201D43030043430300D7
S2140158E0834303006D43030018D00020E0B5002079
S2140158F006289ABF014B185C00207047B8FE0300CB
S21401590030B5154B87B00293144B0390049346F6BB
S21401591011030D46059300F077F91428044616D1B5
S21401592068461EF0C1FD4FF0A843032202A95A6340
S21401593019601D619A63DA6B9207FCD1142C02D1AF
S21401594068461EF0BFFD00F0D5F9044601E00028C8
S214015950E9D0204607B030BDBCA7002004000020D7
S2140159602DE9F04FB1B005468C469E46E8466F4E8F
S214015970DDF8EC90409C06F1100A474630687168E5
S214015980083603C75645B846F7D13E9B03EB0208D7
S214015990C8F1000A0AF00F0AB9F1000F00F09D8065
S2140159A0C9F1000707F00F070121DDF8FCB044F04C
S2140159B00050C4F11006CDF810B0059106903002E3
S2140159C000F4F85040F021000790B9F1000F40F0C4
S2140159D08680CDF820D047F00050002D00F084805E
S2140159E0099121210A9041EA07210B9142F00050CA
S2140159F0CDF830C03D9B08A94FEA0A2C0D910E90B8
S214015A004CF041000F901093002A75D13E9B1191E6
S214015A1043F0005312933C9B1390149310AB1593D1
S214015A20434B444A169340F611031793424B002109
S214015A30002D08BF1346189314AB19933F4B102241
S214015A401A9311231B931CAB184628F0AEFD0122B6
S214015A501D92002246F0804603461E96239205B903
S214015A60EB46102CCDF880B024AE4BD10123224654
S214015A70002130462193229428F097FD20AB002187
S214015A8025938F4218BF334647F0804226923A9AB2
S214015A902CA828922993B2FA82F35B0949EA837308
S214015AA010222B912A9328F080FDB9F1000F00D027
S214015AB028AED04448F080432CA918A82D962E93E2
S214015AC0FFF71EFF30B92DB90346A34225D10028A2
S214015AD018BF2C2031B0BDE8F08F102764E7CDF851
S214015AE020E049F0005078E7002C3FF479AF04A994
S214015AF0099101210A9076E73E9B0CAA119241205A
S214015B00129388E71022002130462193229428F030
S214015B104CFD002CB2D10123B1E703F1C0026A4467
S214015B2012F8C02C01331043CFE700BFBFFE0300BD
S214015B3010000020D4FE0300D8FE0300040000205D
S214015B40F0B5C0299FB0DDE9244557D0B1F5807F77
S214015B5004D0802948D029201FB0F0BD01265CB1B1
S214015B6040F23447029410240396049421240197AA
S214015B700594069502AC0AE040F2144702941024FC
S214015B80039604942124059401240197069507940D
S214015B9001251024089409950A9221220B950C944C
S214015BA00D92174A0AAD0E92164A0F95109242F6BA
S214015BB011021192129313951494159201AA16923A
S214015BC0D3B112AB1793042318931123199316AB71
S214015BD01A901B9340F61103C9081C911AA806A92E
S214015BE01D93FFF78DFEB7E7012614B94FF48267C0
S214015BF0C4E74FF48667B5E70EABE3E70F20ABE7E4
S214015C00D0FE030010000010354AF8B5D2F88032F5
S214015C1043F00103C2F88032324B5B68C3F30803DA
S214015C203BB14FF0A842D36B13F0430FFBD11420C6
S214015C30F8BD2D4F3B789BBB02F068FE0128064657
S214015C4017D83B7803F0FF0453BB0023274DC5E963
S214015C50003305F11003AB6050232846EB6002F0D9
S214015C6051FF286690B101239E423B7018D9204609
S214015C7006E002F07FFE041E30DB3B78002BE4D00A
S214015C8002F09AFE00280BDA0220D1E7012E01D895
S214015C900120CDE7204602F08FFE0028F8DAF3E770
S214015CA002F034FE02280DD0114C23681BB90421E2
S214015CB0204604F0E7FB23680020013343F000434D
S214015CC02360B5E7094B4FF0FF31186E02F064FF11
S214015CD0002814BF01200020AAD1E5E70D20A7E780
S214015CE00080005000ED00E061CB0020C0A700203E
S214015CF0BCA700200A4B10B55C68C4F3080464B95D
S214015D0002F004FE022804D1064B186E02F074FF5E
S214015D100446201E18BF012010BD0020FCE700BF6E
S214015D2000ED00E0C0A70020012300F01F02A0F54F
S214015D3006200949A0F550604009934051F82020FB
S214015D401A4341F82020054951F8202022EA03028F
S214015D5041F82020704700BF38A8002024A8002062
S214015D600121A0F506230E4AA3F550635B0900F056
S214015D701F00814052F82300014342F823100949CD
S214015D80D1E90030034488680344C86809690344BC
S214015D905B1802BFC2E90033C2E9023313617047E0
S214015DA024A8002038A800202DE9F04FA9B00392BE
S214015DB01D4604460822339ECDE90401414021FADE
S214015DC002F34B40980702F1080218BF9B00202AF5
S214015DD01C44F4D18123B4FBF3F303EBC313E41A9D
S214015DE0734B04F506241B7804F55064002B3ED152
S214015DF0FDF7BCFF074620B16FF0910029B0BDE862
S214015E00F08F0146402208A828F0CFFB40223946F1
S214015E1018A828F0CAFBDFF8B481DFF8B491C346AE
S214015E200BF10F0ACDF800A0102208A95B46D9F89D
S214015E30000027F0E9FC0022014608F1100808AF2F
S214015E40914246D1CDF800A05B461022D9F8000059
S214015E5018A927F0E2FC4FF0000A834618AFD34595
S214015E6041D1544B9845DAD10122514B1A704FF06B
S214015E70810A4FF00008DFF85CB1A4F50627A7F504
S214015E8050635B095BF8232004F01F01CA40D20768
S214015E903DD4494A52F82330CB40DB072AD5B8F126
S214015EA0000F08BFA0468123A7F6FF47B7FBF3F311
S214015EB003EBC313FF1A07F50624BAF1010A04F52A
S214015EC05064DAD1039BBBB1B8F1000F14D044463D
S214015ED019E057F8040BCDE90612FFF725FF079ADC
S214015EE006990132ACE757F8040BFFF739FF0AF1C0
S214015EF0010AB4E7039B13B96FF08B007EE7B8F194
S214015F00000F18BF4446349B00201C6076E7329B86
S214015F1013B10023329A13600EB1002333601023AD
S214015F20DFF8AC9000932A4600232146D9F80000FA
S214015F3015F024FA60BB32992A68204BC9B99A42F7
S214015F4006D02146D9F8000015F0B0FA0028D3D1C2
S214015F50D5E90223DDE90410834208BF8A42A2D1B3
S214015F60039B002BCFD06B68012BCCD16FF0840044
S214015F7044E7102032999A420860E2D1002EE7D019
S214015F8033462146D9F8000018AA15F04BFA48B155
S214015F900B4B9842D5D00B4B9842D2D00A4B984225
S214015FA0D6D029E7329A336812689B1A3360CFE756
S214015FB062CB00200071080024A80020105D175E47
S214015FC0FFDF00F011E000F0FEDF00F0006D0800DA
S214015FD0F8CF002038A8002070B5124D2B7803F0BA
S214015FE0FF04CBB902F092FC012802D902F0C2FCF0
S214015FF004462B784BB90C48436D43F001034365C7
S2140160000A4B1B68984701232B7002F07FFC01287E
S21401601002D9204602F0D0FCBDE87040044B02488D
S2140160201B68184763CB00204CA8002018D000201E
S21401603010D00020034B1B781BB1034B03481B6891
S2140160401847704763CB00200CD000204CA80020D6
S2140160502DE9F04F87B08246894698461646DDF808
S21401606040B02AB1002B53D040F26C739A4252D8FA
S214016070BBF1010F52D8002406F110073946012062
S21401608005941EF035FE054600284AD021463A46BC
S21401609028F08BFAFFF7A0FF05ABCDE9014300948A
S2140160A02B46012250464946FFF77EFE044690B134
S2140160B010F18C0F08BF6FF08D043A460021284678
S2140160C028F073FA28461EF0F5FDFFF7B3FF2046C9
S2140160D007B0BDE8F08F144BC5E902A92B60C5F8DF
S2140160E004B02EB13246414605F1100028F080FA80
S2140160F0059E0E483B462A463146006815F0A6F82E
S21401610018B93046FFF710FED7E76FF09104D4E7D1
S2140161106FF08604DBE76FF09104D8E76FF0850433
S214016120D5E76FF08C04D2E7105D175EF8CF00203C
S2140161302DE9F0478CB08146DDE914780C46164609
S2140161401D466BB1B8F1000F49D0002F47D0B7F10B
S214016150005F44D3C3F1005303F5C0339F423ED8DA
S2140161604FF0000A1022002108A828F01EFACDE9F7
S21401617005AAFFF731FF07AB029305AB019306AB08
S214016180214600935246484608ABFFF70DFE0446EB
S214016190D0B9059B3DB1B3421CD853EA060504D0DD
S2140161A06FF0860410E0B342FAD3069B0D48C8F898
S2140161B0005000953A4607990068334415F0DEF81A
S2140161C0002818BF6FF09104FFF734FF20460CB08B
S2140161D0BDE8F0879B1B9D4228BF1D46E5E76FF093
S2140161E08604F3E7F8CF002070B500260C46054676
S2140161F08CB01022002108A828F0D7F9CDE9056651
S214016200FFF7EAFE07AB029305AB019306AB214607
S21401621000933246284608ABFFF7C6FD0446D8B9B8
S214016220099B012B1DD0079D114B2946186815F0B7
S2140162303DF9C8B90122A5F506230E49A3F5506319
S2140162405B0905F01F00824051F8230042402846B2
S21401625041F82320FFF784FDFFF7ECFE20460CB043
S21401626070BD6FF08404F7E76FF09104F4E700BFA8
S214016270F8CF002038A800202DE9F04F95B004464D
S214016280DDE92075DDE922689346DDE91E028A46CE
S214016290DDF8909029B96FF08604204615B0BDE868
S2140162A0F08FBBF1000FF6D00FB9002DF3D108B96E
S2140162B0002AF0D116B9B8F1000FECD1B9F1000FF0
S2140162C0E9D02C4A934251D12388B3F5105F4DD1C2
S2140162D0242200210BA828F068F92022002103A817
S2140162E028F063F90BA81DF0F0FD10B16FF09204D1
S2140162F0D3E720465A46514603AB1EF04DF90446F5
S2140163000028CAD103981EF03BF904460028C4D1E0
S21401631015B9C9F80050C0E7B74224D27B199E428E
S21401632021D24545B7D839462A46304628F023F9C2
S214016330374615F00F0AAED1CDE900762B46524608
S21401634003A90BA8FEF724FF07460028E1D0424622
S2140163505146304628F029F9012FC9F800A0C5D1C9
S2140163606FF08B0499E74545E3D994E76FF0850410
S21401637093E700BF004440042DE9F04FB3B00C464C
S21401638005460021164601A8202298463C9FDDF8C6
S214016390009128F00AF92022002109A828F005F921
S2140163A02022002111A828F000F92422002119A892
S2140163B028F0FBF800213C2223A8229128F0F5F8CA
S2140163C034B12EB127B13E9B13B1B9F1000F05D1FF
S2140163D06FF08604204633B0BDE8F08FB4F800B005
S2140163E0B4F802A00BF4E043B3F5804FF0D0384B7D
S2140163F0384A2B4043F01063934202D06FF0850475
S214016400E8E70AF10703B8EBD30F4FEAD305DFD36A
S2140164103F9B9D4258D819A81DF057FD10B16FF04B
S2140164209204D7E70023694619A80093FFF70CFAF0
S2140164300028F4D1009B284A23F07F43934200931F
S214016440DCD947F212139B45D8D1BAF5807FD5D156
S214016450224B013709933D9B0C90023323F0030333
S2140164600E93402316936B000D97149012932046BB
S2140164704246314622AF01AB15971EF08DF8044611
S2140164800028A7D10B9B119043F4005319A80B9336
S2140164901DF01BFD0028C2D111AB09AA01A919A83C
S2140164A0FFF7DEF8064610B1482891D1A6E72A463E
S2140164B039463E9828F09CF83346BB550136402EA7
S2140164C0FBD1C9F8005085E76FF0890482E700BF69
S2140164D00000FFF600000209010201002000008012
S2140164E0F8B5134642880C460732072A4FEAD2010E
S2140164F001D0A1424DD146680588C76820221846BA
S214016500002128F052F8360A0346002E44D1002C0A
S2140165103FD041F20102954205D0B5F5885F02D021
S214016520B5F5905F02D15C60002011E0B5F5105F13
S21401653007D1182C03D0202C01D0102C29D11C6097
S214016540F1E705F44F42B2F5824F02D06FF08500B5
S214016550F8BDEAB2122AF9D1202CF7D1104A25F05B
S214016560FF05B5F5E24F02600CD0B5F5824F10D1AC
S2140165704FF4005217F4705F09D017F4864F04D019
S2140165809A60E3E74FF48042F4E742F480629A604F
S214016590CAE76FF08600DBE76FF08B00D8E700BF35
S2140165A0200000802DE9F04F9A460388144603F434
S2140165B04F42B5B0B2F5824F0F46DDF8009102D0DA
S2140165C06FF0850056E011B96FF0860052E0002C9E
S2140165D0FAD0B9F1000FF7D0DAB2122AF0D123F0CF
S2140165E0FF03B3F5E24F34D14388C9F800305BBBF3
S2140165F0E300C9F80030B3F5807FE1D100231846E7
S21401660055493D19214411F8016D15F8012D104326
S214016610921B0CBF4FF0FF360026AF4203EA06037B
S21401662043EA0203EFD10028CED0002BCCDA3E9B02
S2140166309C4200F28E8022463946504627F0D8FF0B
S2140166403F9B00201C6015E0DA1DB4EBD20FD2D0C0
S214016650BAE7B3F5824F79D10B78042BB4D1242253
S21401666000211AA827F0A1FF1AA81DF02EFC20B1C0
S2140166706FF0920035B0BDE8F08F019001A91AA81D
S214016680FFF7E2F80028F3D1019B344A23F07F4359
S214016690934295D94FF000083E22414624A8CDF8F2
S2140166A08C8027F082FF01234FF0420B20224146C7
S2140166B002A88DF88C30651E27F077FF7B1C202200
S2140166C041460AA8069323AE079527F06EFF2022BF
S2140166D0414612A80E96CDF83CB027F066FFEA00B8
S2140166E05208B2F5807FCDE9166BC9F800200BD0B1
S2140166F003D8E02A3FF464AF66E7B2F5C07F3FF403
S2140167005FAFB2F5047FF5E7154B02AA02930A9331
S2140167104FF4005304934FF480430C9340230AA98B
S21401672013931AA812ABFEF79BFFD9F80030073374
S214016730DB085A0033B1531E013B86F8008006F190
S2140167400106F9D200283FF472AF3DE76FF09600DC
S21401675090E76FF089008DE7DCFE0300010201007F
S214016760200000802DE9F04F91B0DDF86880814669
S2140167700C4692469B461C9FB8F1000F05D16FF060
S2140167808604204611B0BDE8F08F002FF7D0002810
S214016790F5D02422002107A827F007FF07A81DF03F
S2140167A094FB10B16FF09204EBE714F47C1FC4F372
S2140167B005452AD0102DE2D81B9B9D4233D81D4B90
S2140167C024F47E149C4231D1002303AECDE9033379
S2140167D0CDE9053352465B464946009607A8FEF7C3
S2140167E02FFD044698B92A463146404627F000FF59
S2140167F0234633550134102CFBD100243D6007A8F5
S2140168001DF06DFB0028BCD0CCE71025D4E721286D
S21401681006D0012814BF6FF092046FF08B04EEE7E8
S2140168206FF08604EBE76FF08904AAE76FF0850442
S214016830A7E700BF0002C00370B50E461446054622
S21401684010B96FF0860070BD0029FAD038220021F9
S21401685027F0ABFE094B24F47E129A420AD1338804
S214016860B3F5105F06D1C4F30543102BE9D8002019
S2140168702C60E8E76FF08500E5E700BF0002C00383
S214016880F0B50F4616461D4604468DB088B302B9CC
S2140168907BBB2422002103A827F087FE03A81DF056
S2140168A014FB20B16FF0920420460DB0F0BD2368B2
S2140168B0114A23F47E13934215D135B9002403A857
S2140168C01DF00DFB0028EFD0ECE733463A46009565
S2140168D003A9201DFEF796FD012807D00028EDD05C
S2140168E06FF09204EBE76FF08804E8E76FF08B0433
S2140168F0E5E76FF08604D7E70002C0032DE9F04113
S2140169008EB0884616461D460446149F002840D081
S214016910002A3ED0002B3CD0002F3AD0102B036823
S21401692028BF102513F47C1FC3F3054202D09542FD
S21401693028BF15461A4A23F47E1393422CD12422EB
S214016940002105A827F031FE002305A8CDE9013373
S214016950CDE903331DF0B9FA40B9424601AB05A9AA
S214016960201DFEF7CBFC30B100233B606FF0920098
S2140169700EB0BDE8F08105A81DF0B1FA0446002866
S214016980F2D12A46304601A927F032FE20463D6064
S214016990EEE76FF08600EBE76FF08800E8E700BFF0
S2140169A00002C0030023C36001F138030361202302
S2140169B00A6843618B6D0B4922F47E128A4243605A
S2140169C003D001F580718A4208D1102B01D0182B13
S2140169D002D1036000207047202BFAD06FF08800A8
S2140169E0704700BF0001C00330B58BB06D46604CE8
S2140169F00FCC0FC554F8043B68462B604FF07E63FE
S214016A0093F89C306D46FF2B08BF25238DF8013087
S214016A10FDF7D4FE3220FDF709FF0FCC0FC50FCCD2
S214016A200FC594E8030085E80300524BD3F84C21C8
S214016A30110340F18380A3F5FE431C884FF6FF73D4
S214016A409C4208BF81248DF81940FDF785FE044459
S214016A5084F3080448488DF81840FDF759F868464D
S214016A60FDF7AEFD3220FDF7E7FE444C4448FDF746
S214016A7057FD4448FDF7E6FE1DF05CF9236F002044
S214016A8023F0070343F002032367236F23F45053D5
S214016A9043F4806323671DF054F93B4BD3F8FC2085
S214016AA0D2014FD4D4F8803023F0030343F002031D
S214016AB0C4F88030314BD3F8202122F0070242F08F
S214016AC00102C3F82021D3F8802122F0030242F00C
S214016AD00102C3F88021D3F8402122F0030242F0DC
S214016AE00202C3F84021D3F8602122F0030242F0EB
S214016AF00202C3F86021D3F8402222F0030242F0DA
S214016B000202C3F84022D3F8002222F0070242F024
S214016B100202C3F80022D3F8082222F0070242F04C
S214016B200202C3F80822FDF7DBFC4FF0E02200204A
S214016B30136963F0040313610BB030BDD3F8504101
S214016B40E4B280E7D3F8FC2022F08072C3F8FC2080
S214016B50D4F8802022F0030242F00202C4F880201A
S214016B60D3F8FC2042F08072C3F8FC20A2E700BFF5
S214016B70FCFE03000080E00F00F049020080005098
S214016B8000B4C404C0EA210100ED00E06FF0040384
S214016B90502110B50A480B4C13F0800F03F1010287
S214016BA006D123443D2A83F800131346F4D110BDC1
S214016BB003F00F03043B034419761346ECE700BFCA
S214016BC000ED00E000E100E0BFF34F8F0549064B02
S214016BD0CA6802F4E0621343CB60BFF34F8F00BF75
S214016BE0FDE700BF00ED00E00400FA05002807DB22
S214016BF001234109034A00F01F00834042F8213077
S214016C00704700BF00E100E0002808DB01224309CD
S214016C10034900F01F008240603341F8232070478B
S214016C2000E100E00028ACBF00F16040064B4FEAEF
S214016C300111C9B2ABBF00F5614000F00F0080F84A
S214016C4000131954704700BF14ED00E073B500241B
S214016C50684600F0F1FA0C4B00981C600B4B0C4D8B
S214016C601C600C4E0C4B306018602C601EF05EF8F9
S214016C702046019B3268013BDB0853802B680133B9
S214016C802B6002B070BD00BFB4A80020B0A80020E1
S214016C90B8A80020C0A80020BCA800202DE9F04F0D
S214016CA00027924687B04A1C0E4614BF0C4608249D
S214016CB099460597002B00F0B0801F60002800F071
S214016CC0AE80073020F007051CF0CBFF05AB314640
S214016CD00290009352463B46284600F0B7FA059EBE
S214016CE0804606B130B902981CF0C1FF192007B0E2
S214016CF0BDE8F08FDFF83CB17788DBF80010FB00C9
S214016D00C0EBC7070139272FCBF800106CD9BAF1B1
S214016D10000F48D1854205F1080740D0214630468C
S214016D201DF082FF04460590059B1F4438461DF062
S214016D30FDFF059905F10F034A88C3F3CF03D21A65
S214016D407A80CA88BB8062B3D31A9BB201EBC202B7
S214016D50FB8093808B88ED08A380BB880022314698
S214016D6038466580E38000F0E9FA237843F00103B2
S214016D702370DBF800300133CBF800302B4A029841
S214016D801368083443441360294A11688B4288BF4C
S214016D9013601CF06CFF0020C9F80040A7E73446DA
S214016DA0C2E7FA80D6E7F419204603931DF0BEFF2A
S214016DB008F10702D20805996280FA1DD208A2805E
S214016DC0CA887AB1D200039BD01DC31A4344C3F3C9
S214016DD0CF030A44E3809380A388013FFF084F80D6
S214016DE0CB80C2E7E280F7E7BAF1010F19D106F1CD
S214016DF00803B3FBF4F204FB1233A3B12146304679
S214016E001DF012FF04462378012243F001033146A8
S214016E102046237000F092FAB0E7222067E721208F
S214016E2065E78542EAD13446EDE700BFB4A8002005
S214016E30B0A80020B8A800202DE9F347044668460C
S214016E4000F0FAF9002C00F0C2801CF00AFF14F8DA
S214016E50085CEB0704D534F806ECBEF1000F05D14B
S214016E601CF005FF012002B0BDE8F087DFF870C115
S214016E7034F8041CDCF800800EF1010208F101036D
S214016E80A4F1080692B2CCF80030002938D0A6EB5F
S214016E90C10393F800A0B3F806901AF0010F5F88BB
S214016EA005F0020520D105BBA9EB0701012927D86A
S214016EB00EF102021744BAB2CCF8008034F8025C34
S214016EC005BB14F8085C511E6FF3000504F8085C56
S214016ED0002589B224F8065C5980197865F300010B
S214016EE019700021D98031E055B111448AB214F8E5
S214016EF0081C6FF3410104F8081C00219980DDE7A6
S214016F003346DBE706EBC508DDE900710F44B845FB
S214016F10D7D216F83560414616F001062ED014F881
S214016F20086C551E6FF3000604F8086C002624F85A
S214016F30066C1C78ADB266F300045D801C70C3F16C
S214016F4007040C44C4F3CF04DC808C80214C2168F8
S214016F5019B1994201D8498801B923601E4C2168AC
S214016F6019B1994201D3498801B923601B490B68BD
S214016F709B1A0B601CF07BFE002074E7A5EB0E0548
S214016F80012DCCD8B8F80250A8F8026001352A4481
S214016F90B8F8065092B2C5B108EBC501DCF800504E
S214016FA0013DCCF8005014F8085C6FF3000504F8B6
S214016FB0085C002524F8065C541E5C801C7865F38A
S214016FC000041C700029BAD18BE72946E6E7222087
S214016FD049E700BFC0A80020BCA80020B4A8002034
S214016FE0B8A800202DE9F84F04460D469146002A20
S214016FF000F017810023136040B9002900F01381C7
S21401700001462846BDE8F84F1DF04EBE19B9BDE849
S214017010F84FFFF711BF1CF024FE34F8063C073585
S2140170204FEAC30825F00705A8450746A4F108005E
S21401703080F0848034F8022C002A65D000EBC20A66
S21401704010F83220D2075FD4BAF80210A8EB050672
S21401705016EBC10658D41F2E3DDDC5F3CF0304EB56
S214017060050B24F8063C013324F8023C58461DF073
S2140170705DFE34F8023CC6F3CF06ABF80430BAF82E
S2140170800630ABF802601BB3BAF802209A1A16440F
S214017090B6B20AEBC303ABF806609E8000225146E7
S2140170A0584600F04BF950461DF040FEC9F8004026
S2140170B05E4A13682B44A3EB080313605C4A11680D
S2140170C08B4200D9136038461CF0D1FD002625E01E
S2140170D0ABF80630E2E7574E0B4432689BB2013AF2
S2140170E032605A1C24F8062CBAF806204AB102333C
S2140170F09BB20AEBC20224F8023C9380012251465D
S214017100CFE724F8022CF9E74A46002128461DF06D
S214017110CBFD064628B138461CF0A9FD3046BDE831
S214017120F88F42462146D9F8000027F061FA20463A
S214017130FFF782FE06460028BAD0ECE76ED934F88F
S214017140023CA8EB050B002B38D000EBC30610F869
S2140171503330DB0733D4C5F3CF0304EB050A24F839
S214017160063C013324F8023C50461DF0DFFD7388CF
S21401717034F8022C03EBDB03AAF80420F2889BB256
S214017180AAF80230BAB101339BB206EBC202AAF8E2
S2140171900630938050460022314600F0CFF8304644
S2140171A01DF0C4FD214BC9F800401A681544A5EB33
S2140171B008051D6087E7AAF80620EBE71E46BBF127
S2140171C0270FEFD9C5F3CF0304EB050A24F8063CD5
S2140171D0013324F8023C50461DF0A8FD34F8022C79
S2140171E0CBF3CF03AAF80230AAF8042096B1F288AE
S2140171F082B101339BB206EBC206AAF80630B38011
S2140172000C4A00211368504601331360012200F036
S21401721095F8C7E70023AAF80630F1E7C9F8004059
S21401722051E722267AE7212678E700BFB4A8002096
S214017230B0A80020B8A800200249034A0160521AEB
S2140172404260704710D2002000800120F0B506464B
S2140172500020059F4C1C08BF08213860BAB91F489A
S2140172600568002D38D0B5F802E0DB0003EBCE0E42
S214017270C1F1000C2878C0070BD52ABBE888B0B14D
S21401728005EBC005B5F802E003EBCE0EF2E71448B5
S214017290E6E7B645F1D35AB905F10804B4FBF1F0B7
S2140172A001FB1044A0190CB17045E7D83D60F0BD54
S2140172B008290FD06C88013405EBC404A01B00EA32
S2140172C00C00201A8645F1D2A8880028EFD0A5EB3D
S2140172D0C005D7E73046E9E72846E8E7C0A800201A
S2140172E0BCA80020134B13B51B6804460846FBB127
S2140172F021B96846FFF7A0FF6CB900980378D90753
S21401730007D55CB9C3889BB100EBC3000378DA07E5
S214017310F8D402B010BD084B1868EFE7012C07D16E
S21401732083882BB1A0EBC3000378DB07F8D4F0E722
S2140173300020EEE7B8A80020BCA80020F8B5124F40
S21401734005460C463B68114EB2B1994209D041B18F
S2140173503368994204D129460120FFF7C3FF306004
S214017360F8BD29460020FFF7BDFF33683860A34209
S214017370F1D0002CEFD0F3E79942336808BF3860AC
S2140173808B4208BF3060EBE7C0A80020BCA80020F5
S214017390BFF35F8F074B5A6A22F480325A62D3F8E2
S2140173A0942022F00102C3F89420BFF34F8FBFF35D
S2140173B06F8F704700ED00E038B5FFF7E9FF284A08
S2140173C02848D2F8C030284D23F0FF0343F0A0032D
S2140173D0C2F8C030254B04689D4204F101011ED15C
S2140173E0234BC2F89840C2F89C3003F5BF3303F52F
S2140173F0FF73C2F8A0300160BFF35F8F0522184B00
S214017400C3F894205A6A42F480325A62BFF34F8F0F
S214017410BFF36F8FBFF34F8FBFF36F8F38BD23F06E
S2140174201F03203BB3F1005F09D3C2F89840104C0C
S21401743043F00103C2F89C40C2F8A03001600D4B36
S2140174400168074A23F01F0343F00303C2F89810AC
S214017450C2F89C30084B0131C2F8A030CBE700BF20
S21401746000ED00E0C4A80020A0CF002000CE002040
S21401747003000020BFCF0020E17F01202DE9F0416D
S2140174800D461146DFF8E080D8F80040B4F5807F5D
S21401749034BF00271A27FFF77BFF1F292ED90021AB
S2140174A0C2061CBF20F01F0020302E4EEB0618BF70
S2140174B025F01F05CBB29C4235D8D6F8C03020F057
S2140174C01F0023F47F4343F48073C6F8C03040F0B6
S2140174D003041CF0C6FBD8F8003025F01F0141F06C
S2140174E00301C6F89830C6F89C40C6F8A0101CF0F8
S2140174F0BEFBD8F800300133C8F80030BFF35F8F09
S2140175000522184BC3F894205A6A42F480325A6214
S214017510BFF34F8FBFF36F8FBFF34F8FBFF36F8FE5
S2140175203846BDE8F081C6F89830D6F89C30D6F8D3
S214017530A02023F01F03984222F01F0201D195429A
S2140175400BD0904201D89D4209D2D6F8983001312D
S21401755023F0FF03C6F89830ACE70027CEE72827CC
S214017560CCE700BF00ED00E0C4A80020BFF34F8FBA
S2140175700549064BCA6802F4E0621343CB60BFF3C9
S2140175804F8F00BFFDE700BF00ED00E00400FA05E5
S214017590054B1A782AB95B78002B0CBF0320022012
S2140175A070470120704700BF6CCB00200329F8B557
S2140175B098BF124B05460E468CBF00245C5C032820
S2140175C005D8DFE800F002080B0E44F002040C4B6D
S2140175D01F684FB9F8BD44F00804F8E744F02004EA
S2140175E0F5E744F08004F2E77B681A68144203D09A
S2140175F0314628465B6898473F68EAE750FF030034
S214017600F4A8002038B5104D2B78ABB10F4C237879
S2140176101BB100F025FB0023237000201DF09CFB0E
S2140176200B4C50B100F06EFB0023012120782B702B
S214017630FFF7BCFF0123237038BD0122054B1A70EA
S2140176402278054B1A70F7E768CB002066CB00203E
S2140176506ECB002069CB00206ACB002010B51CF051
S214017660F9FA064B04461B781BB1BDE810401CF026
S214017670F5BAFFF7C7FF2046F7E700BF65CB002046
S214017680094A137830B101331370084B1B78012B6C
S21401769003D87047013B13707047054B1B780BB935
S2140176A0FFF7B0BF704700BF6CCB00206ECB002049
S2140176B069CB002070B51CF0CDFA174E0546174869
S2140176C01DF027FA3378D3B900F04CFC044620B1FC
S2140176D028461CF0C3FA204670BD11481CF0CAFAB1
S2140176E000F0BEFE0F4B1C6000F024FD0E4B0F4A4F
S2140176F01860536F43F0010353671DF034FB00F02D
S214017700B3F91DF02BFB0A4B002418600123284611
S21401771033701CF0A3FADEE76FCB00204CFF0300AA
S214017720F4A80020C8A80020F0A8002000400050BF
S214017730CCA800202DE9F843284A0138135C39B15A
S214017740274F013339781354012904D8BDE8F8834B
S214017750013B1354FAE7FFF71BFF0128044635D80F
S2140177601CF078FADFF88480054698F8003013B3E9
S2140177701C4E33781BB9012232701B4A1370DFF896
S214017780709099F8003023B100F06AFA002389F866
S214017790003028461CF062FA01201DF0DDFA1CF0CC
S2140177A059FA337805461BB100F0ACFA0023337062
S2140177B0002388F8003028461CF050FA38788442B6
S2140177C0C4D02146FFF7F2FE3C70BFE70329F5D18E
S2140177D00228F3D11DF0C6FAF0E700BF6CCB0020FB
S2140177E06ECB002065CB002069CB002068CB002043
S2140177F066CB002038B51CF02DFA094B05461B78E0
S214017800012B04D81CF02AFA0024204638BD054B6B
S2140178101C6800F0B5FA044428461CF01FFAF4E789
S2140178206ECB0020C8A8002038B5416004461CF085
S21401783011FA0546214604481CF01FFA2846BDE801
S21401784038401CF00BBA00BFF4A80020054B1B689B
S2140178505843054B00F5742000F23F20B0FBF3F0CF
S214017860704700BFF0A8002040420F002DE9FF47F7
S214017870EFF3108772B6AFF300801EF09FF8002872
S21401788071D06D4EDFF8D481337823B10020FFF735
S214017890F7FE00233370FFF77BFE0446002869D00D
S2140178A0841EE4B2012C6CD9FFF772FE012805464E
S2140178B0624CDFF8AC9100F28E802078A84205D0A9
S2140178C099F80030002B00F0A5802570207800F094
