S01C00005F5F5F70726F6A6563745F616C6C5F736F757263652E7333373C
S214012000C00A0020FD4201002B5803002B58030094
S2140120105D6E03002B5803002B5803002B5803005A
S2140120202B5803002B5803002B580300D123010023
S2140120302B5803007024040061230100CD700300B7
S2140120402B580300196001002B5803002B5803007E
S2140120502B5803002B5803002B5803002B58030062
S2140120602B5803002B580300059A0100313F01004D
S214012070135703002B5803002B5803002B5803005B
S2140120802B5803002B5803002B5803002B58030032
S2140120902B580300DD4A01002B5803002B58030080
S2140120A02B5803002B5803002B5803002B58030012
S2140120B02B5803002B5803002B580300B938030094
S2140120C04D060400490604004D300300590604007D
S2140120D0510604007D38030055060400B1150300BF
S2140120E0F93803002B5803002B5803002B58030024
S2140120F02B5803002B5803002B5803002B580300C2
S2140121002B5803002B5803002B5803002B580300B1
S2140121102B5803002B5803002B5803002B580300A1
S2140121202B5803002B5803002B5803002B58030091
S2080121302B5803001F
S214012134F0B5114A114C124E00F00105E3695F0730
S21401214413D40DB9334213D103EA00078F4207D1E2
S2140121540B4A1A40002A0CBF00206FF00100F0BDA4
S214012164013AEBD16FF00200F9E74FF0FF30F6E7E2
S2140121746FF00100F3E700BF80969800000003505B
S214012184020001000B4B70B5D96911F480310DD1F1
S21401219401244FF48072084E084DF46020462C64E6
S2140121A41A61FFF7C5FF3464EC6070BD6FF001007F
S2140121B4FBE700BF0000035000100350002003504B
S2140121C438B541F6713301220C4C0021E569E3630D
S2140121D40B4B05F48035DA6002236061212023610C
S2140121E4FFF7A6FF10B92120FFF7A2FF0122054B36
S2140121F4DA600DB10023E36338BD00BF000003506D
S214012204001003500020035070B5134C6061E3695D
S2140122145B071ED40E4656F8043B8D18A361AE42E6
S2140122240BD10423002121202361FFF781FF58B934
S214012234BDE870402120FFF77BBF08210846FFF761
S21401224477FF10B10423236170BD56F8043BA361E4
S214012254E5E74FF0FF30F7E7000003502DE9F843B8
S214012264154641F67132164B8946DF69DA63012257
S214012274064603F58053DFF8508007F48037DA60AA
S21401228455B9284601220F4BDA601FB10022A3F587
S2140122940053DA63BDE8F88306F5005404EA08043B
S2140122A4A41BAC4228BF2C46494622463046FFF7BB
S2140122B4ABFF0028E6D12644A1442D1BE0E700BF6E
S2140122C4000003500020035000E0FFFF0000000060
S2140122E0013800D0FCE77047000000000000000045
S2140122F00B4A1168086806C881F30B88022181F32E
S2140123001488203080F30988BFF36F8F4FF00000E8
S21401231080F31188104700BFAFF30080AFF3008051
S214012320C0D70020000000000000000000000000F0
S21401233007480068006880F3088862B661B6BFF394
S2140123404F8FBFF36F8F02DF00BF00BFAFF3008078
S21401235008ED00E0000000000000000000000000A2
S214012360EFF309801EF0100F08BF20ED108AEFF37F
S2140123700B82734620E9FC0F114A116808604FF082
S214012380300080F31188BFF34F8FBFF36F8F08F0D3
S214012390AFFB4FF0000080F31188094A1168086806
S2140123A0B0E8FC0F13F0100F08BFB0EC108A82F3F0
S2140123B00B8880F309881847AFF30080AFF30080DD
S2140123C0C0D7002000000000000000000000000050
S2140123D01EF0040F0CBFEFF30880EFF309800449E9
S2140123E0084700BFAFF30080AFF30080AFF3008073
S2140123F0637A030000000000002370B5404C0546D8
S2140124008AB0E36318B1008823600FF009FC3D48E9
S2140124102DF052FC3C4E3D4B304633603C4B7360D6
S21401242029F061F8002130461AF03CFD32A3D3E9C9
S2140124300023A062C4E9062329F060F8D4E9062344
S21401244019431043C4E90601CDE900014FF0FF33FB
S2140124504FF0FF32A06A2DF083FC02224FF0FF31CD
S214012460A06A2DF082FC01200FF036F84FF40073BD
S21401247000222849A06A2DF0C9FCB0F5007F38D1AA
S21401248000239422CDE9073309933C23CDE9033297
S21401249005939623A06A03A906931AF0EBFD35B3BC
S2140124A0287C0FF05DFC0546F0B9A06A2DF08AFD88
S2140124B00FF004FC0EF0F2FF20B14FF48070002103
S2140124C00CF07AF80EF0FAFF20B14FF4006000210C
S2140124D00CF072F829F038F901201AF039FD0E4A8D
S2140124E00E49A06A28F0FDFF28460AB070BDFF20FD
S2140124F0D7E70725F8E700BF0DD5015520000000F6
S214012500300B0020690345EC60DE00205D130200FD
S21401251070DE002060DC00208BB40300CBB4030027
S2140125200348044B834202D0034B03B1184770475C
S21401253088F5002088F5002000000000064B0749BA
S214012540C91A891048BF0131491003D0044B0BB199
S21401255001481847704700BF88F5002088F500201D
S2140125600000000010B5064C237843B9FFF7D8FFEA
S214012570044B13B10448AFF300800123237010BD50
S21401258078E60020000000000C56040008B5054B54
S2140125901BB105490548AFF30080BDE80840FFF7C9
S2140125A0CDBF00BF00000000980D00200C560400AF
S2140125B0A3F5803A704700BF174B002B08BF134B9B
S2140125C09D46FFF7F5FF00218B460F461348144A38
S2140125D0121A2EF0E2F80E4B002B00D098470D4B46
S2140125E0002B00D098470020002104000D000D4864
S2140125F0002802D00C48AFF3008021F025FD200012
S214012600290023F03EF821F035FB00BF000008004A
S2140126100000000000000000C00A0020C00A0020E0
S21401262060F10020000000000000000037B50C46F5
S2140126300346027F0021204613F092F90546F8B1C1
S214012640234C2449206824F067F92349206824F0A4
S21401265063F923F067F823F066F8204B204A0093CD
S21401266020493723206824F057F91F4A1F4920685C
S21401267024F052F92A461E49206824F04DF9FEE757
S2140126800221204613F096F90546F8B1104C11497F
S214012690206824F041F91049206824F03DF923F020
S2140126A041F823F040F80D4B0D4A00930D493D23A8
S2140126B0206824F031F90C4A0C49206824F02CF9E2
S2140126C02A460C49206824F027F9FEE703B030BDFE
S2140126D07CC10020222004004817040000180400D2
S2140126E04D170400641704007017040083170400D4
S2140126F09B170400C7170400034637B50846110A9E
S2140127009A725972110C120E1972DA7100211A7F1F
S21401271013F026F90546F8B1104C1149206824F04B
S214012720FBF81049206824F0F7F822F0FBFF22F0AE
S214012730FAFF0D4B0D4A00930D494D23206824F0F6
S214012740EBF80C4A0C49206824F0E6F82A460B49B7
S214012750206824F0E1F8FEE703B030BD7CC100201C
S2140127602220040048170400F01704004D17040047
S2140127706417040070170400831704009B170400F5
S2140127802DE9FF413A4D23F003F8002000F0B4F99B
S214012790284600F019FA4FF000086FF07F43052431
S2140127A00127344E2846C5E9013822F08FFD284618
S2140127B0314922F0EFFE32682846531C33602F4918
S2140127C03B46CDE901470094D2B222F0F6FE3268CC
S2140127D02846D31933602A494346CDE90147009478
S2140127E0D2B222F0EAFE32682846D3193360254970
S2140127F04346CDE901470094D2B222F0DEFE3268AC
S2140128002846D319336020494346CDE90147009451
S214012810D2B222F0D2FE32682846D31933601B4961
S2140128204346CDE901470094D2B222F0C6FE326893
S2140128302846D319336016494346CDE9014700942B
S214012840D2B222F0BAFE3B4607222846CDE901471E
S2140128501049009422F0B1FE3B460A222846CDE9F3
S21401286001470D49009422F0A8FE04B0BDE8F081AE
S214012870B40D0020B00D0020B81804000A1804009A
S2140128801C1804002D1804003B1804004B18040003
S2140128905B1804006C1804007718040000B589B0B2
S2140128A00B4600920A49024605A821F05DFB052366
S2140128B001220093CDE9013205A90023082205482B
S2140128C022F07BFE00F040F909B05DF804FB00BF82
S2140128D07E180400B40D002000B58BB002460B46EE
S2140128E004A8094921F040FB052301220093CDE904
S2140128F0013204A900230922044822F05EFE00F0FA
S21401290023F90BB05DF804FB8D180400B40D00200C
S21401291000B58BB002460B4604A8094921F024FBFA
S214012920052301220093CDE9013204A900230B22DD
S214012930044822F042FE00F007F90BB05DF804FBF4
S214012940A2180400B40D00200123054A411100F02D
S2140129501F00834052F82100034342F8213070479C
S214012960E00D0020044B1B681BB1044B03600020E4
S21401297070470120704700BFF00D00201CE60020C4
S21401298070B50D4C246884B10C4C85182688B54268
S2140129900DDC6688CD18B54209DC52B14BB1A0807A
S2140129A00020E1802281638170BD0120FCE70420C4
S2140129B0FAE70520F8E700BFF00D00201CE600202E
S2140129C02DE9F74F9946494B1B68002B00F08A808A
S2140129D0B9F1000718BF01274FF0010BDFF814A16A
S2140129E07F42BAF80650BAF80A300D9E2B449BB2C5
S2140129F00D440093FFB2ADB21EB9304603B0BDE838
S214012A00F08F009AABB29A426ED9BAF80840BAF87B
S214012A100430241AB44228BF34461844344B361BBB
S214012A2080B203EB0512B9F1000F0AD0072C26D8A5
S214012A300444A04216D32846FFF786FF013500203E
S214012A40DAE7072C1BD80444A042F4D2C108535C31
S214012A5000F0070C0BFA0CFC23EA0C03013053546C
S214012A6080B2F1E7C10812F801C000F007030BFAC3
S214012A7003F343EA0C030130535480B2D9E74FEA1B
S214012A80D00C02EBD00810F007000BD1E208394653
S214012A90404601922DF081FE14F00704019ACAD037
S214012AA0904412E00BFA00F312F80CE0DBB2591E68
S214012AB05B420EEA01013B4008381943044402F820
S214012AC00C10E20808F10108E1D10BFA04F498F8B9
S214012AD00030E4B26242013C13403C40234388F894
S214012AE00030A8E7012688E7042686E7F00D0020D7
S214012AF079E600201CE6002037B5114D2B68EBB9AE
S214012B0000F054F9044610B1012003B030BD00F0C6
S214012B1041F928600028F7D002884188094B2046F1
S214012B201A801A814A43598059819C80DC8021464B
S214012B30CDE9004223462246FFF742FF0020E4E7A4
S214012B40F00D00201CE600202DE9F84300230125A6
S214012B501A461A4FDFF86C803C68DFF86490D8F8A4
S214012B600000D61841888E4207D3FBB910220021F7
S214012B7012482DF012FE002012E0E10708D50133BD
S214012B80D118C9060ABF57F8254064080135E6E79B
S214012B9053B109EB021122F03FFD034610B10720A5
S214012BA0BDE8F883721CEBE70132E9E7044901EB63
S214012BB0021122F031FD0028D8D0F0E7E00D002008
S214012BC079E60020F00D002030B5054687B000B349
S214012BD000226FF07F43C0E9012301A8FFF7C2FE80
S214012BE0044698B9019BCDE902001A882B605B88E0
S214012BF0013A013B284602A90492059322F091FB73
S214012C00044618B92846044922F0C4FC204607B0F9
S214012C1030BD0524FAE700BFE81B04000122014B82
S214012C201A61704700F0035013B5044606F07AFDAA
S214012C3000230122217BCDE900324900B0FBF1F1EE
S214012C40024A034824F04BF902B010BD1D2C0100C6
S214012C50080E0020F7B508260E4C054604F58053ED
S214012C601E67407B06F00CFF04230B4F02220DF17A
S214012C7006013846ADF8063022F0D3FC384622F07D
S214012C80E1FCA87B06F0FCFE002004F50054266754
S214012C9003B0F0BD00C0035000F3002070B5064637
S214012CA0124823F06AFDB1680022114800F08EF840
S214012CB0002304220321022002F062FD0023354690
S214012CC00C4C04221946184602F05AFD0FCD0FC4CB
S214012CD001222B6830462360074B1A70FFF7A4FFCA
S214012CE03046FFF7B7FF002070BD00BF6C2604001A
S214012CF000F30020F40D002079EE00202DE9F74FB7
S214012D0080460E46174699461546DFF880A01E4CAB
S214012D10DFF87CB007EB0903AB42019503D800202E
S214012D2003B0BDE8F08F08230125CAF8703098F883
S214012D300D0006F0A5FE2A4669462046ADF800506D
S214012D4022F06FFC2A4601A9204622F06AFC314691
S214012D501022204622F065FC204622F073FC022257
S214012D6020460DEB020122F05CFC204622F06AFCB4
S214012D7098F80E0006F084FE0823019DCBF870300B
S214012D8010360135C6E700BF00F3002000D003501F
S214012D9000E00350034B04481B78002B08BF0020BB
S214012DA0704700BF79EE0020F40D002030B5064DC7
S214012DB087B001AC0FCD0FC42B6801A82360FFF7C5
S214012DC06DFF07B030BD00BF181F04002DE9F04F9E
S214012DD004462D4E89B001AD894690460FCE0FC5EB
S214012DE096E80700D4F800B0284B85E807009B4515
S214012DF045D003F580439B4543D0254DAB450CBFDD
S214012E0002254FF0FF35DFF890A022480AEB451760
S214012E10D7F8AC6523F0B1FC606823F0AEFC617BAB
S214012E20207B0023042202F0ABFC0422617A207A84
S214012E30002302F0A5FC0123584601A98DF81230A3
S214012E40CDF80C90ADF8148022F0E7FD0020627AF0
S214012E50237A2E3543EA02430AEB451ACAF80430B0
S214012E60627B237B06F0040643EA024346F018061B
S214012E70C7F8C035C7F8AC6509B0BDE8F08F0025C6
S214012E80C1E70125BFE700BF2C1F040000800550E5
S214012E90000006506C26040000C003500346034A97
S214012EA007CA83E807001846704700BF481F04009A
S214012EB0F8B5054600240A4F0A4E3968307822F0E4
S214012EC0C6FBA84201D02046F8BD0134522C03D0DF
S214012ED0012006F0D5FDF0E74FF0FF34F3E700BF21
S214012EE0340E00207AEE0020034B04221870034BA8
S214012EF01960012302F044BC7AEE0020340E002053
S214012F002DE9F0435A4B4FF030085A4D5A4E0746BA
S214012F10D8681B7C89B04FF001090422296800900B
S214012F208DF804303078002302F02AFC42F21001BA
S214012F303378524C2A6808FB034309FA02F25A50C6
S214012F4044F2506006F09CFD32782B6808FB024480
S214012F5041F2100209FA03F3A350142006F090FD83
S214012F604B4602222968307802F00AFC0020FFF75F
S214012F709FFF013004D04846FFF79AFF01306ED11B
S214012F803F48FFF78BFF3E4B93E8070087E80700B3
S214012F90384609B0BDE8F083012006F071FD2968C6
S214012FA0307822F054FB78B90134592CF4D1044618
S214012FB02968307822F04BFB50B90134652CDFD0FC
S214012FC0012006F05DFDF3E7582C08BF0024EFE76B
S214012FD0642CD5D01E2006F053FD2968307822F0E7
S214012FE036FB68B16FEA080308AA02EBE80212F89A
S214012FF0201C03F0070309FA03F30B4302F8203CF5
S21401300000242968307822F022FB30B10134592C93
S214013010B6D0012006F034FDF3E7582CB0D008F105
S2140130200108B8F1280F1CD19DF800209DF8013049
S2140130309DF802109DF8035013449DF804400B447C
S2140130402B449C420E4B0ED00E4A02AD05AC07CA6D
S21401305085E8070084E8070083E8070093E74FF058
S214013060000800249BE7C3E900019A608BE700BFD4
S214013070481F0400340E00207AEE002000C00350E2
S214013080280E00205C1F04000321F0B5084685B019
S214013090FFF72AFF154D164E164F00F045FA044667
S2140130A001A8FFF72DFF019B6BB9029B2B60039BC9
S2140130B04FF47A70104A1360104B5C43B4FBF0F087
S2140130C007F0C4FCE9E702330AD122F02BFB22F019
S2140130D02AFB0B49306823F01FFC00232B60E7E72F
S2140130E022F020FB22F01FFB3946F3E79C4E00201E
S2140130F07CC10020791F0400984E002040420F003A
S214013100681F04001FB5084B4FF480520293074B0B
S21401311007490193062307480093002324F00AFC7D
S21401312005B05DF804FB00BF380E0020980E0020A5
S214013130831F040089300100014B1868704700BFE7
S2140131409C4E0020014B1868704700BF984E002027
S2140131502DE9F0411A4D1B4C00F0E6F9064600F049
S214013160E9F90746FFF7E8FF8046FFF7EBFFC1B234
S2140131705FFA88F0FFF7B0FB2B68134801333B2B4F
S2140131800EDC2B602A6821680068FFF787FBF0B227
S214013190F9B2FFF7BDFB4FF47A7007F057FCDBE797
S2140131A000232168026801313B292B602160E9DD9B
S2140131B00132172A2360D8BF13460360E2E700BF37
S2140131C010F3002014F3002018F300201FB5084B5D
S2140131D04FF480620293074B074901930523074882
S2140131E00093002324F0A6FB05B05DF804FB00BFA6
S2140131F0A04E0020004F00208C1F0400513101001A
S214013200052300B589B08DF804304FF4E132002370
S2140132104FF4A061CDE902324FF48052CDE9041299
S2140132204FF4A0220693ADF81C30084B0848C3F8AB
S214013230C4254FF4C022C3F8BC25142201A9C3F843
S214013240AC2502F0C9FC09B05DF804FB00C00350D0
S214013250008005501FB5084B4FF480520293074B70
S21401326007490193052307480093002324F062FBD6
S21401327005B05DF804FB00BF005F0020605F002022
S214013280951F0400DD340100F0B503789BB0303B98
S214013290092B1AD8DFE813F00A00280049006F004E
S2140132A09E00BE00190019001900EA0001227F4B9A
S2140132B07F4901A81A70002420F056FE7D4E01AD0C
S2140132C001A82DF09DFAA04201D81BB0F0BDB3694C
S2140132D05A06FCD5304615F8011B22F0E6FB0A20FB
S2140132E007F0B4FB0134EBE7704B71491A7801A87B
S2140132F00E2A8EBF01220132D2B21A70002420F0AB
S21401330033FE6C4E01AD01A82DF07AFAA042DCD94D
S214013310B3695B06FCD5304615F8011B22F0C5FBE8
S2140133200A2007F093FB0134EDE70122624C634962
S21401333001A8228020F018FE2188002401EB8101DB
S21401334001EB8101490189B2084600F0DDF9594EC9
S21401335001AD01A82DF054FAA042B6D9B3695F06B3
S214013360FCD5304615F8011B22F09FFB0A2007F01A
S2140133706DFB0134EDE7504C21880B2920D90C2335
S2140133804FF416512380084600F0BEF922884B49B7
S21401339001A820F0E9FD0024464E01AD01A82DF05C
S2140133A02FFAA04291D9B3695806FCD5304615F8D4
S2140133B0011B22F07AFB0A2007F048FB0134EDE7F7
S2140133C0013189B2218001EB810101EB81014901C3
S2140133D089B2D8E73A4C3B48364E206000F00CF9EB
S2140133E02268394901A820F0BFFD002401AD01A8DB
S2140133F02DF006FAA0427FF668AFB3695906FCD5F0
S214013400304615F8011B22F050FB0A2007F01EFB80
S2140134100134ECE72D4901A82DF0DDF90024254EF5
S21401342001AD01A82DF0ECF9A04212D8052404251F
S214013430274E4FF4FA70C6F8A05007F007FB254B4D
S2140134404FF4FA70C3F8A05007F000FB013CF0D12E
S2140134503BE7B3695A06FCD5304615F8011B22F046
S21401346024FB0A2007F0F2FA0134DAE7FFF764FEDC
S2140134700446FFF767FE22460346174901A820F0D7
S21401348073FD002605460B4F01ACAE423FF41DAF5F
S214013490BB695B06FCD5384614F8011B22F005FB18
S2140134A00A2007F0D3FA0136EFE700BF5CF50020EB
S2140134B09F1F040000800550D8F40020B31F0400AD
S2140134C01CF30020C71F0400D21F0400E61F0400DF
S2140134D000D0035000E003500120040008B5042288
S2140134E001230521002002F04BF900230122184692
S2140134F0062102F045F9042201231146032002F0B9
S2140135003FF9FFF77DFE064C064DA3691B06FCD569
S214013510204622F0C4FA28700248FFF7B5FEF4E709
S214013520008005507BEE0020014B1878704700BFE5
S2140135305CF50020014B1888704700BFD8F40020C6
S2140135402DE9F8431C4F1D4E1D4DFFF7F5FD804636
S214013550FFF7F8FD8146FFF7E7FF0446FFF7EAFFAE
S2140135600A212405000499FBF1F304F4700400F425
S214013570702044EA000298FBF1F401FB139901FB69
S214013580148809F00F09200342EA090280B24FEAC3
S2140135900828024308F470681B01DBB242EA0802FD
S2140135A028461A4331783A60FFF7A6F84FF4FA60D6
S2140135B007F04CFAC9E700BF20F300205DF50020B4
S2140135C07CEE00201FB5084B4FF400620293074BB8
S2140135D007490193052307480093002324F0AAF91D
S2140135E005B05DF804FB00BF609F0020C09F00206F
S2140135F02420040041350100F7B5354E07463078E2
S21401360012F09CF9334C054608B33349206823F081
S21401361083F93249206823F07FF922F083F822F0FB
S21401362082F82F4B2F4A00932F496A23206823F0F4
S21401363073F92E492B462E4A206823F06DF9284649
S21401364000F0BAFD2B49206823F066F9FEE72A4B05
S214013650009740F2FF221B680621284821F0FAFD58
S21401366031782648FEF7E2FF22F05CF822F05BF89C
S214013670234B24491A68206823F04EF9022130783A
S21401368012F098F9054608B31349206823F044F967
S2140136901249206823F040F922F044F822F043F85A
S2140136A00F4B104A009310497123206823F034F918
S2140136B00E492B460E4A206823F02EF9284600F0C4
S2140136C07BFD0C49206823F027F9FEE703B0F0BD27
S2140136D05DF500207CC1002022200400481704006C
S2140136E00A21040039200400641704004520040060
S2140136F0422004005A20040020F300207CEE002023
S2140137001CF300206B2004002DE9F341DFF844810F
S214013710064698F800000F4612F010F9434C05468D
S21401372008B34349206823F0F7F84249206823F09C
S214013730F3F821F0F7FF21F0F6FF3F4B3F4A0093E5
S2140137403F497A23206823F0E7F83E492B463E4A54
S214013750206823F0E1F8284600F02EFD3B4920685A
S21401376023F0DAF8FEE7009003463A46314698F829
S214013770000012F0ADF8054608B32D49206823F085
S214013780CBF82C49206823F0C7F821F0CBFF21F0B5
S214013790CAFF294B294A009329498123206823F02F
S2140137A0BBF828492B46284A206823F0B5F8284656
S2140137B000F002FD2549206823F0AEF8FEE702215D
S2140137C098F8000012F0F6F8054608B31849206884
S2140137D023F0A2F81749206823F09EF821F0A2FFF3
S2140137E021F0A1FF144B154A009315498523206843
S2140137F023F092F813492B46134A206823F08CF8DD
S214013800284600F0D9FC1149206823F085F8FEE728
S21401381021F088FF21F087FF3B4632460C4920689D
S21401382002B0BDE8F04123F077B800BF7CC10020AC
S2140138302220040048170400F62004003920040062
S2140138406417040045200400422004005A200400A6
S214013850852004005DF5002070B50368A34A23F4B3
S2140138607F4323F00703934288B005D0A04A9342D2
S21401387000F0E68008B070BD0DF10F0104A812F04B
S214013880EDF89C4C054608B39B49206823F044F8A4
S2140138909A49206823F040F821F044FF21F043FFC5
S2140138A0974B984A009398499723206823F034F859
S2140138B096492B46964A206823F02EF8284600F0B3
S2140138C07BFC9449206823F027F8FEE7BDF8143006
S2140138D001465BBAADF818309DF8133008228DF812
S2140138E01A30FF238DF81B30FE238DF81C309DF80F
S2140138F0123018208DF81D30BDF810305BBAADF8C7
S2140139001E3006AB12F07CF8054608B37A492068EB
S21401391023F002F87949206822F0FEFF21F002FF29
S21401392021F001FF764B774A00937749A62320685A
S21401393022F0F2FF75492B46754A206822F0ECFF0B
S214013940284600F039FC7349206822F0E5FFFEE7BF
S214013950714E304611F0A4FF054608B3664920684B
S21401396022F0DAFF6549206822F0D6FF21F0DAFE60
S21401397021F0D9FE624B634A00936349AA2320686B
S21401398022F0CAFF61492B46614A206822F0C4FF33
S214013990284600F011FC5F49206822F0BDFFFEE7D3
S2140139A04FF4C862009003461146307811F090FF3C
S2140139B0054608B35049206822F0AEFF4F492068FB
S2140139C022F0AAFF21F0AEFE21F0ADFE4C4B4D4A8F
S2140139D000934D49B123206822F09EFF4B492B46A8
S2140139E04B4A206822F098FF284600F0E5FB49493B
S2140139F0206822F091FFFEE70721307811F08AFF58
S214013A00464B40F2FF221B6806210093444B454873
S214013A101B6821F01FFC21F085FE21F084FE42493F
S214013A20206822F079FF31783E48FEF7FFFD21F04D
S214013A3079FE21F078FE3D49206822F06DFF19E7F6
S214013A40354C0221207811F0A1FF054610B3294C10
S214013A502949206822F060FF2849206822F05CFF8F
S214013A6021F060FE21F05FFE254B264A0093264991
S214013A70C423206822F050FF24492B46244A20689C
S214013A8022F04AFF284600F097FB2249206822F0E0
S214013A9043FFFEE70221207811F08CFF054600283F
S214013AA03FF4E8AE134C1449206822F035FF134961
S214013AB0206822F031FF21F035FE21F034FE104B54
S214013AC0104A00931049C823206822F025FF0F49A9
S214013AD02B460F4A206822F01FFF284600F06CFB99
S214013AE00C49206822F018FFFEE700BFA000010085
S214013AF0A00006017CC10020222004004817040013
S214013B00E72004003920040064170400452004005F
S214013B10422004005A2004005DF500201CF300201A
S214013B2020F300207CEE0020B5200400D120040004
S214013B3030B503687C4A23F47F4323F0070393429E
S214013B4089B040F0EE80082200211220774B11F058
S214013B5057FF044610B3764D7649286822F0DCFEFE
S214013B607549286822F0D8FE21F0DCFD21F0DBFD46
S214013B70724B734A009373495C23286822F0CCFE8B
S214013B8071492346714A286822F0C6FE204600F095
S214013B9013FB6F49286822F0BFFEFEE701460322A9
S214013BA014206C4B11F02CFF044610B3604D614994
S214013BB0286822F0B1FE6049286822F0ADFE21F0A7
S214013BC0B1FD21F0B0FD5D4B5D4A00935D496A236E
S214013BD0286822F0A1FE5C4923465C4A286822F048
S214013BE09BFE204600F0E8FA5949286822F094FE28
S214013BF0FEE7014605221620574B11F001FF054648
S214013C0010B34B4C4B49206822F086FE4A49206887
S214013C1022F082FE21F086FD21F085FD474B484AC1
S214013C20009348497823206822F076FE46492B46C1
S214013C30464A206822F070FE284600F0BDFA444944
S214013C40206822F069FEFEE70DF10F0104A811F0CD
S214013C5005FF044610B3364D3649286822F05CFE4F
S214013C603549286822F058FE21F05CFD21F05BFD05
S214013C70324B334A009333498323286822F04CFEA3
S214013C8031492346314A286822F046FE204600F094
S214013C9093FA2F49286822F03FFEFEE7BDF814305C
S214013CA001465BBAADF818309DF8133008228DF83E
S214013CB01A30FF238DF81B30FE238DF81C309DF83B
S214013CC0123018208DF81D30BDF810305BBAADF8F3
S214013CD01E3006AB11F094FE054610B3144C154980
S214013CE0206822F019FE1449206822F015FE21F002
S214013CF019FD21F018FD114B114A00931149932328
S214013D00206822F009FE10492B46104A206822F04E
S214013D1003FE284600F050FA0D49206822F0FCFD0B
S214013D20FEE709B030BD00BFA00001001521040068
S214013D307CC1002022200400481704005021040002
S214013D401E210400641704004520040042200400DC
S214013D505A200400462104004A21040007B501A8A0
S214013D6001F08AFE9DF80530012B27D1224A936D7A
S214013D70DB0313D4536B23F4FF0323F4FE4343F412
S214013D80BC1343F4A0635363136B23F4704343F4EF
S214013D9040431363136B43F4E06313639DF80430ED
S214013DA063B94FF000531B68144B1B68144B1B6818
S214013DB0144B1B68144B1B68144B1B68144AD2F82F
S214013DC0803043F00303C2F8803003F08BFE00F02E
S214013DD06DFA22F054FD22F0C4FC04F02FFA00F034
S214013DE05BFA00F09FFB00F0B3FE06F06DF803B03F
S214013DF05DF804EB04F056BF00C000500040002000
S214013E000080002000C000200000012000400120AA
S214013E100080005030B5204D95B00DAC0FCD0FC4CD
S214013E2095E80700032384E8070001248DF84D3048
S214013E301A4A1B4B0021CDE903231A4B0E220DF122
S214013E402600CDE905342CF0A8FC4FF48021164B52
S214013E500DAACDE907130B238DF824300C238DF81A
S214013E602530124B07A90A9320230B93104B1148B8
S214013E70009303AB8DF8314004F020F904469DF819
S214013E8032304FF4E130002B0CBF0321002121F02A
S214013E90BDFC204615B030BDA823040000800550A7
S214013EA021000500060004022480055099EE00203A
S214013EB0C0BF00200CC10020831E012B10B512D8F4
S214013EC0012922D8114B04221B6905210020C3F3C6
S214013ED0401301F055FC0E4B1B681868A8B1BDE8ED
S214013EE01040436A18478B1E012B0CD801280CD8AA
S214013EF0BDE810400022054B05211B691046C3F39F
S214013F00401301F03DBC0129E5D910BD00C00350A6
S214013F1024F3002008B50449044804F07DFFBDE8F9
S214013F200840FFF777BF00BF28F3002034C1002008
S214013F30014822F0AEBE00BF0CC10020184B37B5B9
S214013F4083422AD1174B1B783BB3C8B211F046FD0A
S214013F50054610B3144C1549206822F0DDFC1449BF
S214013F60206822F0D9FC21F0DDFB21F0DCFB114BAF
S214013F70114A009311498523206822F0CDFC10498F
S214013F802B46104A206822F0C7FC284600F014F998
S214013F900D49206822F0C0FCFEE703B030BD00BF2B
S214013FA03CC10020B9EE00207CC100202220040084
S214013FB04817040030240400C423040064170400D6
S214013FC045200400422004005A20040030B5002594
S214013FD00368584A23F47F4323F0070385B09342CE
S214013FE004460295ADF80C507ED002F5802293422D
S214013FF00ED0A2F18272934240F09A804E4B1B780B
S214014000002B00F0958005B0BDE8304022F0F1BFEE
S214014010B0F805301B2B40F08B80FF2304A91A460D
S21401402011E9030021F077FB012814BF41F2FC15CA
S214014030414B05F0FC0208BF18701B21207911F0D6
S214014040F5FC054610B33D4C3D49206822F064FC62
S2140140503C49206822F060FC21F064FB21F063FB00
S214014060394B3A4A00933A495923206822F054FCC6
S21401407038492B46384A206822F04EFC284600F084
S2140140809BF83649206822F047FCFEE73449009049
S2140140902379344A0968344800F0AEF8054600280A
S2140140A046D0264C2649206822F036FC2549206851
S2140140B022F032FC21F036FB21F035FB224B234A5D
S2140140C0009323496223206822F026FC21492B46CF
S2140140D0214A206822F020FC284600F06DF81F498E
S2140140E0206822F019FCFEE7B0F80530B7EE047A36
S2140140F007EE903AF8EE677AB0F8073067EE877AFF
S214014100013307EE103AB8EEC77A67EE877AB1EE5A
S214014110047A67EE877AFAFE677AFCEEE77A17EE9C
S214014120903AB3F57A7F38BF4FF47A730C4A13602E
S21401413005B030BDA0000602B9EE00207CC100200B
S21401414022200400481704003F240400C42304006E
S2140141506417040045200400422004005A2004008D
S21401416030F300203D3F01003CC10020012208B58C
S214014170074B1A700022074B1A700422064B1A705E
S2140141801F22064B1A7003F049FD054B186008BD47
S21401419060F50020BAEE00205FF500205EF50020F5
S2140141A07CC10020024B0349186822F0B5BB00BF52
S2140141B07CC100205F24040070B50C4C0C490646F7
S2140141C0206822F0A9FB03F029FD0546206803F0CC
S2140141D0FBFC3046FFF7E6FF284603F0F5FC2068B7
S2140141E00449BDE8704022F097BB00BF7CC10020A7
S2140141F061240400632404002DE9F7430546904634
S2140142001F469DF8289049B9B9F1000F39D1002809
S21401421014BF2120222003B0BDE8F08378B34FF409
S2140142207A7303FB01F404F2E7349C42B4FBF3F621
S21401423027D321F081FA012801D10120EBE7144BA5
S214014240314600934A462B461248019523F0BEFBA1
S2140142500646C0B1C5E90B086F6385F83C9006F0C9
S214014260F5FA00240246234601213046009406F062
S2140142709FFE012809D0284621F05EFADDE72220BC
S214014280C9E72120C7E71920C5E72046C3E700BFD5
S214014290295703006624040008B5034822F06DFA86
S2140142A0BDE8084021F003BA6C260400014822F05C
S2140142B064BA00BF6C26040007B5082021F0EDFAA9
S2140142C002238DF80030054B6846019321F062FA0F
S2140142D0082003B05DF804EB21F0EABA006A181072
S2140142E00348044A0449121A921021F09FBA00BFEB
S2140142F034210100D422010060F1002008B500F04D
S2140143002FF8FFF7EDFF124B12498B4212D3002014
S214014310114B12498B4218D3FEF74EF9186850F824
S2140143202240586840F82240013298688242F5D30C
S2140143300C33EAE70022F8E71C6844F82200013251
S2140143405C68A242F8D30833E4E70022F8E700BF2E
S214014350145604002056040020560400205604007B
S214014360124B134A70B59A60D3F88820114D42F467
S2140143707002C3F888206FF0010205F5005422662A
S21401438041F2FF7262660222C3F8D020BFF34F8F5C
S214014390BFF36F8F4FF44036032003F0F3FB032087
S2140143A0E66003F0E1FB2E6170BD00BF00ED00E0AA
S2140143B00020010000800044014B1868704700BFD0
S2140143C038F30020014B1860704700BF38F3002017
S2140143D0084B1B6F03F00703022B04D0032B05D0F9
S2140143E0012B05D0FEE7044B18687047034BFBE72B
S2140143F0034870470080005038F3002040F3002047
S214014400002D310108B5FFF7E3FF054B1B6FC3F322
S21401441001330133B0FBF3F0024B186008BD00BF57
S2140144200080005034F300200048704700B4C404F4
S214014430014B1868704700BF40F30020054B186019
S214014440054B1B6F03F00703032B01D1FFF7DABF00
S214014450704700BF40F300200080005000487047BE
S214014460002D3101174B9868C0F304400C280AD878
S214014470DFE800F00B0909090909072119091B1DC5
S2140144801F0011487047002070479B6803F0407377
S214014490B3F1807F11D0B3F1007F10D00B4A002B0F
S2140144A008BF104670470A4870470A4870470A48CE
S2140144B070470A4870470A4870470A4870470A48D2
S2140144C0704700BF0040015A405DC60000093D002C
S2140144D0C0EA210180BA8C010048E801005A620254
S2140144E00024F40080841E0040420F00014B18682F
S2140144F0704700BF3CF3002000239B6AB3F5903F52
S21401450003D21968064A914203D0002303708360E0
S2140145107047012202709A689B694260F7E700BF04
S21401452007B0CD5E00239B6A10B5B3F5903F11D25C
S21401453019680A4A91420DD1094C227812F0FD0FF2
S21401454001D0002010BDDB6998470028FAD101236D
S2140145502370F6E74FF48170F4E700BF07B0CD5E35
S214014560BBEE00204FF00053014A1A6003F0D8BAA0
S21401457002020FF0034B5868C0F30800003818BF5A
S2140145800120704700ED00E040B1054A1378012B89
S21401459004D8037001330020137070470120704760
S2140145A0BCEE002013B500242948019422F0E5F85A
S2140145B0012304220321204601F0E2F8204621F0DF
S2140145C005FA0122234B0520C3F8442401A922F051
S2140145D0CAF8002839D1204BD3F8F02042F0010266
S2140145E0C3F8F020D3F8FC2042F08072C3F8FC2018
S2140145F01A4AA3F55D431A60019B194A03F5D523B0
S21401460003F2FC43B3FBF2F3164A013B13610223A8
S214014610C2F8F0304FF48073C2F804334FF06043B1
S214014620114AC3F8B02F114AC3F8802ED3F8002ED2
S21401463042F48072C3F8002EFF2283F82020D3F8BC
S214014640002E22F48072C3F8002E02B010BD00BF07
S2140146506C26040000D0035000ED00E0FF0300408C
S214014660F8590D00000004E055CEACC50900010064
S2140146704FF06043D3F8802E30B5D20715D501240C
S2140146800B4D8440D5F8FC2042F08072C5F8FC2022
S214014690D3F8002E2243C3F8002E53F82020002A18
S2140146A0F0D003F82010002030BD1120FCE700BF39
S2140146B000ED00E02DE9F04F9A46564B85B01B7889
S2140146C006460F461546DDF83C909DF844B0DDF8E9
S2140146D05080002B00F09780072A00F296800E9BF0
S2140146E0002B00F09280B9F1000F00F08E80129B33
S2140146F0B3F5006F00F38980012803D1109B002BCE
S21401470000F08380444B03EB05131B7B002B7ED00C
S214014710424C1022002168462CF03FF804EB451469
S2140147201022A7BB394620462CF037F843F2100377
S2140147306380BBF1000F03D1E37843F00303E3701A
S214014740364A0E9B02EB451CCCE90193129B69018C
S214014750581E9DF84C30C0F30A0003F003039B0675
S21401476043EA001E53582E48012E00EA03004EEA83
S2140147700003CDF800A0535017D0B8F1000F2ED18A
S2140147809CF8023068F304138CF8023027E000210D
S21401479020462CF002F84FF444736380BBF1000FFF
S2140147A0CED1E37843F03003C9E713230CF1100EA2
S2140147B0CCF80C309CE80F008EE80F006FF0030178
S2140147C0DCF81C20109B61F39F02012FCCF81C2003
S2140147D0CCF8143003D1CCF81890CCF8043000276C
S2140147E00D4A290102EB051342F80180159A284665
S2140147F05A60694622469F605E7301F045F8384666
S21401480005B0BDE8F08F0748FAE70748F8E707481C
S214014810F6E700BFBDEE002080C2002080C1002068
S2140148200F80FFF3028000F0018000F0078000F0A7
S21401483038B5124B05461B78DBB1E0B121F011F813
S2140148400F4A00231146147B54B92B6001251A0127
S21401485001EB03131D738C5021F009F8204638BD77
S2140148600133082B02F11002EDD121F000F80548C2
S214014870F5E70548F3E70548F1E700BFBDEE002080
S21401488080C20020048000F0028000F0018000F069
S21401489038B520F0E6FF002305460B4A147B6CB9B9
S2140148A00133082B02F11002F8D100F0A9FF074BE3
S2140148B028461C7020F0DBFF204603E0284620F047
S2140148C0D6FF034838BD00BF80C20020BDEE0020E1
S2140148D0058000F00D4B10B51B78044693B10728F0
S2140148E012D820F0BEFF0A4B03EB04131A7B2AB141
S2140148F000241C7320F0BBFF204610BD20F0B7FF3C
S2140149000448FAE70448F8E70448F6E7BDEE002055
S21401491080C20020068000F0028000F0018000F0D6
S214014920154B13B51868002301908DF8043020F05C
S21401493098FF124B1C7824B120F099FF104802B062
S21401494010BD01221A7020F092FF0E4B01A81C73B5
S2140149501C7783F82C4083F83C4083F84C4083F85E
S2140149605C4083F86C4083F87C4008238DF8073060
S21401497000F062FF2046E2E7C0240400BDEE0020FE
S214014980038000F080C200200A4A08B512785AB1A6
S21401499007280BD8084A02EB00131B7B43B1002102
S2140149A000F03CFF002008BD0448FCE70448FAE795
S2140149B00448F8E7BDEE002080C20020028000F027
S2140149C0018000F0078000F00A4A08B512785AB153
S2140149D007280BD8084A02EB00131B7B43B10121C1
S2140149E000F01CFF002008BD0448FCE70448FAE775
S2140149F00448F8E7BDEE002080C20020028000F0E7
S214014A00018000F0078000F00A4A08B5127852B11A
S214014A1007280AD8084A02EB00131B7B3BB100F0BB
S214014A207FFF002008BD0548FCE70548FAE7054872
S214014A30F8E700BFBDEE002080C20020028000F033
S214014A40018000F0078000F00D4B1B7893B107281A
S214014A5012D889B10B4B03EB00131B7B73B10A4BC6
S214014A601A6D01238340134214BF01230023002043
S214014A700B707047054870470548704705487047F2
S214014A80BDEE002080C2002000000450028000F02D
S214014A90018000F0078000F00B4A10B512780C4632
S214014AA062B107280CD859B1084A02EB00131B7BE8
S214014AB043B100F047FF2070002010BD0448FCE71A
S214014AC00448FAE70448F8E7BDEE002080C200205B
S214014AD0028000F0018000F0078000F0184B2DE9FD
S214014AE0F0411F6D5B6D1F4000D5FEE701260025D6
S214014AF0144CDFF85880374218D02368C8F8506045
S214014B00A3B1A168284601316268A1609847637B1A
S214014B10012B0BD150B90C4B03EB45131A7B60F3F9
S214014B2041021A731A7F60F341021A770135082D84
S214014B304FEA460604F11004DDD1BDE8F08100BF5E
S214014B400000045080C2002080C1002000200450D4
S214014B50024B1968024B186817F0B0BD44F30020E9
S214014B6064F3002070B59400224605460E462CF0EC
S214014B70E7FD431C0AD058B92246314628462BF099
S214014B80E2FD0028034808BF002070BD0248FCE78C
S214014B900248FAE710E000F021E000F024E000F01F
S214014BA010B504462CF0C8FD431C10D088B900F09F
S214014BB08BFF234620F003002044984201D10020B9
S214014BC010BD53F8042B0132F7D00348F8E7034829
S214014BD0F6E70348F4E700BF0EE000F021E000F03E
S214014BE024E000F008B520F035FE014B186008BD42
S214014BF0F0C90020014B186820F030BEF0C9002033
S214014C0041F67133124A30B5D469124DD3639368B5
S214014C10A84204F4803423F4401306D893600E4A65
S214014C20D2F8183223F002030AE043F480139360AB
S214014C300A4B9842F3D9084AD2F8183243F00203D5
S214014C40C2F8183214B10022014BDA6330BD00BF3E
S214014C5000000350005A620200C0075080F0FA02BA
S214014C602E4B98424AD022D82D4B984240D014D889
S214014C702C4B984239D00AD82B4B984232D02B4B2A
S214014C8098422FD02A4B98422CD000207047294BAF
S214014C909842FAD1284B186F7047284B98422AD071
S214014CA0274B9842F1D1244BD3F880007047254B0F
S214014CB098422BD009D8244B984223D0234B9842B4
S214014CC0E3D11D4BD3F88C007047214B984221D07D
S214014CD003F5740303F510539842D6D1164BD3F857
S214014CE098007047144B986D7047134B586E704779
S214014CF0114B586F7047104B986F70470E4BD3F897
S214014D00840070470C4BD3F8880070470A4BD3F8E1
S214014D1090007047084BD3F8940070470048E801AC
S214014D200024F400C0CF6A0080841E0000093D0004
S214014D3040420F00405DC6000080E00FC0EA21013E
S214014D4080BA8C01007E560380D54302006CDC02DB
S214014D500090D00338B5134B0546D3F820010C4616
S214014D6000F0070004281AD8DFE800F003090D1147
S214014D701500012305B1286004B1236038BDFFF793
S214014D801BFB0423F6E7FFF753FB0323F2E7FFF7CA
S214014D9069FB0523EEE7FFF761FB0223EAE7002341
S214014DA01846E7E70080005037B50C460021114B46
S214014DB00191D3F88031054603F00303022B0ED090
S214014DC0032B11D0012B03D101A8FFF7C3FF0D213F
S214014DD00DB1019B2B6004B1216003B030BDFFF71C
S214014DE041FB05210190F3E7FFF738FB0221019013
S214014DF0EEE700BF0080005038B5104B0546D3F8EB
S214014E0040310C4603F00303022B0BD0032B0DD0CD
S214014E10012B0FD120F018FD082305B1286004B13D
S214014E20236038BDFFF762FB0723F6E720F00FFD8E
S214014E300923F2E701230020EFE700BF00800050BE
S214014E4038B5104B0546D3F860310C4603F0030322
S214014E50022B0BD0032B0DD0012B0FD120F0F4FC2D
S214014E60082305B1286004B1236038BDFFF73EFB77
S214014E700723F6E720F0EBFC0923F2E701230020E5
S214014E80EFE700BF0080005038B5144B0546D3F855
S214014E9000020C4600F0070004281BD8DFE800F0EB
S214014EA003090D111500012305B1286004B1236023
S214014EB038BD20F0C9FC0823F6E7FFF717FB0723E8
S214014EC0F2E720F0C4FC0923EEE7FFF79BFA0C2378
S214014ED0800AE9E700231846E6E700BF0080005095
S214014EE038B5144B0546D3F808020C4600F0070007
S214014EF004281BD8DFE800F003090D111500012373
S214014F0005B1286004B1236038BD20F09DFC08235C
S214014F10F6E7FFF7EBFA0723F2E720F098FC092300
S214014F20EEE7FFF76FFA0C23800AE9E7002318463D
S214014F30E6E700BF0080005038B5104B0546D3F8B1
S214014F4040320C4603F00303022B0BD0032B0DD08B
S214014F50012B0FD120F078FC082305B1286004B19D
S214014F60236038BDFFF7C2FA0723F6E720F06FFC8F
S214014F700923F2E700231846EFE700BF0080005040
S214014F8038B5104B0546D3F800310C4603F0030341
S214014F90022B0BD0032B0DD0012B0FD1FFF748FAB4
S214014FA0032305B1286004B1236038BDFFF79EFADC
S214014FB00723F6E720F046FC0623F2E7012300204C
S214014FC0EFE700BF0080005038B50C46054620F0DC
S214014FD041FC054B9A6A54402C4054409C62BDE803
S214014FE0384020F03BBC00BF00C00050032814D05E
S214014FF005D8012805D0022809D0002005E00F2891
S214015000FBD1084B186FC0F3013001307047054BD8
S214015010D3F89000C0F30460F7E7024B186FC0F3B3
S2140150208020F2E7008000501FB500230193252859
S21401503017D8DFE800F0131A1D272C363B51565BB4
S21401504060656A78161A401616561A272C27361ADD
S2140150505127783B3B3B3B2727275B60FFF7B8F997
S2140150600190019805B05DF804FBFFF7CBF9F7E76F
S214015070FFF7AEF902460220FFF7B8FFB2FBF0F2E7
S2140150800192EEE7FFF7BEF902460320F4E7FFF7C9
S214015090B9F902460320FFF7A9FFB2FBF0F2520866
S2140150A0EEE7002101A8FFF77FFEDAE7002101A85D
S2140150B0FFF750FED5E702934FF0E0231B695B072D
S2140150C005D5FFF79FF90290029B0193C9E703A953
S2140150D002A8FFF791FEF7E7002101A8FFF78CFE73
S2140150E0BFE7002101A8FFF7ABFEBAE7002101A840
S2140150F0FFF7CAFEB5E7002101A8FFF7F1FEB0E70A
S214015100002101A8FFF73CFFABE7094BD3F880303D
S21401511003F00303022BA8D0032B01D000209FE746
S214015120FFF7A0F99CE7002101A8FFF705FF98E724
S2140151300080005008B50120FFF776FFBDE8084063
S2140151400349884294BF01210221032000F002B8DE
S21401515080F0FA02032810B50C4627D004D801289F
S21401516004D0022817D010BD0F28FCD120F0FBFB7D
S21401517020F001FC124A013C136F23F4405343EA2A
S21401518004331367FFF73EF90021FFF739FDBDE849
S2140151901040FFF7CFBF0A4A4C1ED2F8903023F0DA
S2140151A0F85343EA0463C2F89030DCE7044A4C1E25
S2140151B0136F23F4806343EA84231367D3E700BFA6
S2140151C0008000501FB500230193252821D8DFE871
S2140151D000F013202020202A2F454A4F54595E7193
S2140151E020203420204A202020202A204520712FEC
S2140151F02F2F2F2020204F54314B1B6F03F0070316
S214015200013B032B05D8DFE803F00C02080A042350
S2140152100193019805B05DF804FB0323F8E7062324
S214015220F6E70223F4E7002001A9FFF7BDFDF0E74A
S214015230002001A9FFF78EFDEBE702934FF0E02374
S2140152401B695B0705D5FFF7DDF80B230393039B6B
S214015250DEE703A902A8FFF7CFFDF8E7002001A9C2
S214015260FFF7CAFDD5E7002001A9FFF7E9FDD0E762
S214015270002001A9FFF708FECBE7002001A9FFF7F0
S2140152802FFEC6E7002001A9FFF77AFEC1E70C4B07
S214015290D3F8803003F00303022B03D0032B05D091
S2140152A00023B5E7FFF7AEF80B23B1E7FFF7DAF80F
S2140152B00523ADE7002001A9FFF73EFEA9E700BFE1
S2140152C000800050024A536A23F00103536270477C
S2140152D000C0075008B5FFF775FF07280ABF024B45
S2140152E04FF6FF70188808BD4AF5002008B5FFF78D
S2140152F069FF03280ABF024B4FF6FF70188808BDE6
S21401530048F5002038B50546FFF7AAFC204B0446B1
S2140153105A68012A04D11F494A609A699207FCD14A
S2140153200020FFF74FFF042803D120F01CFB20F0DC
S21401533022FB194A24F0407395421FD0174A954222
S2140153401FD0174AD16811F0060FFBD19068936001
S21401535091684B4013F4F81F16D12846FFF732F830
S2140153600020FFF72FFF042810D1FFF74BF800218C
S214015370FFF746FCBDE83840FFF7DCBE43F000739C
S214015380DFE743F08073DCE79060E9E738BD00BFF4
S21401539000C0015000E0015040420F0080841E0012
S2140153A000000150F8B504460020FFF70BFF032864
S2140153B000F0818045F60E0302213F4AC2F8803094
S2140153C03E4B9962012103F580539962936DD9038F
S2140153D0FCD4D4E900131B0543EA0163E17B94F88E
S2140153E020500B43217BE77E43EA0143617B6D013D
S2140153F043EA0133A17B43EA811313619169D4E93E
S21401540004031B0643EA806301F000410B43A17EBF
S21401541094F823000B43217E43EA0143617E43EA6D
S21401542001239361136AE66923F00D0394F82210B1
S21401543043EA870366BB1362966A94F8213045EA0D
S214015440031326F033052B4343F0010393621C4DEF
S214015450194A936D35EA0303FBD10225174B9D626A
S214015460936D5B00FCD41369A56823F4700343EACB
S214015470055313614FF00042104B9A6119B902228D
S21401548003F580539A6278B901220E4B9A620BE0BB
S214015490334343F008031362936A23F03303034351
S2140154A02B4343EA4103936294F824301BB1024B29
S2140154B0054AC3F88020F8BD00C0005000D0005057
S2140154C00300014000E00050F1A7FFFF70B5184C43
S2140154D0FF28A66A2AD8A36D13F4803F18BF0122BD
S2140154E0144B18BF9A6202229A62A56D15F0804588
S2140154F0FBD1114AA36992F9002023F47F030244E9
S21401550023F47F4382F3080243EA002343EA02437B
S214015510A36131460220FFF757FDA36DDB0303D5D8
S21401552031460120FFF750FD284670BD2125FBE7D7
S21401553000C0005000D00050BEEE0020014B93F991
S21401554000007047BEEE002001231248124A816A0D
S2140155509362836D03F00303032BFAD10223936254
S2140155600C4A936D5800FCD40C48936D30EA030343
S214015570FBD10122084B1A65A3F580539A6D920759
S214015580FCD49A6D9007FCD59A6D9207FCD5032042
S214015590FFF71ABD00C0005000D000500300010004
S2140155A0F0B5D0E901434FF4D1560227164A4178A7
S2140155B005785662154E4F2977604FF0010728BFD0
S2140155C04F2106F5805677601669F603FCD441EA4A
S2140155D0052151611B01417B43EA04230B43017BF7
S2140155E043EA41039360C37B817B1B0143EA41137A
S2140155F0417C0B43017C43EA41035360837C13B136
S2140156006FF4D1535362F0BD0000025000100250F7
S214015610014B1880704700BF4AF50020014B1880E7
S214015620704700BF48F50020284B984242D01AD850
S214015630A3F5B703A3F55863984237D00CD8244B8B
S214015640984225D0234B98422AD0234B984217D014
S2140156500023224A93607047214B9842F8D1214B90
S214015660D3F8BC301FE0204B984227D01F4B9842FE
S21401567028D01F4B9842EBD11A4BD3F8C83012E012
S214015680184BD3F8A03023F0407343F00073E0E7E3
S214015690144BD3F8A03023F0407343F08073D8E75F
S2140156A0104BD3F8A03023F04073D2E70D4BD3F85C
S2140156B0B830F8E70B4BD3F8C030F4E7094BD3F812
S2140156C0CC30F0E7074BD3F8D030ECE7C0EA210145
S2140156D080841E0000093D0040420F000040015A30
S2140156E00024F4000080E00F0048E801005A62023E
S2140156F080BA8C010C4A10B51369044643F00403C2
S214015700136103F045FD20F04EF9084B084AC3F833
S214015710202430BF20F048F903F05CFD1CB9BDE839
S2140157201040FEF76FBE10BD00ED00E000E0035034
S2140157300000FFFF0A4A10B51369044643F004034C
S2140157401361084B084AC3F8202403F021FD30BF3B
S21401575003F040FD1CB9BDE81040FEF753BE10BD76
S21401576000ED00E000E003500000FFFF034A01796E
S214015770D36E23F030030B43D366704700400050CE
S214015780F8B504460D461F4616464AB101238B401E
S2140157903021184A01FB0022F7B141F210015350A3
S2140157A004EB4403072D4FF00F014FEA031316D8FD
S2140157B0A80006FA00F281400F48184420F0F7F8D6
S2140157C04EB9012330210B4AAB4001FB042277B1CD
S2140157D041F210015350F8BD42F21001DFE7A5F186
S2140157E00800800006FA00F281400448E5E742F22C
S2140157F01001EFE700C0035004C003500CC0035073
S21401580008B5152002F09EF90022FF21024B5A65C9
S21401581099625A6008BD00BF00000450044A054B57
S214015820002908BF1346012282401A60704700BF54
S214015830401004504020045010B5044641780278C8
S2140158400120104B120658609A60A278152042EA91
S21401585001429A61FF229A6200229A631A644FF00B
S21401586000425A654FF0FF3203F500531A6502F005
S21401587089F91520E17802F093F9BDE8104015206A
S21401588002F072B900000450F8B50125C3B2DFF882
S2140158908CC0D1F800E09D408F7ACB7A0C46097B0C
S2140158A0CCF850500CF5005C4CF820E04FF0300E70
S2140158B0184E1B050EFB006094F80DC043EA074323
S2140158C043EA415322F00302C0F860C0C365026791
S2140158D01FF0C7FF104B5D65237A13B1336C2B4362
S2140158E03364637A13B1B36B2B43B3632279A37921
S2140158F043EA0243094A93616179E37943EA014342
S21401590005498B61034B55639D64BDE8F8401FF064
S214015910AEBF00BF00000450001004500020045029
S21401592010B50124C0B284401FF09BFF044B5A6D92
S21401593022EA04025A659C62BDE810401FF097BF38
S2140159400000045010B50124C0B284401FF089FF46
S214015950074BDA6A224208D15B6B9C430CBF0124D9
S21401596000241FF084FF204610BD0024F9E700BF85
S2140159700000045041F67132034BDA63012203F54D
S2140159800053DA60704700BF0000035041F67132E1
S2140159900121044BDA6303F50052D1600022DA6379
S2140159A0704700BF00000350CB784A7810B55B0102
S2140159B00C7843EA82030A79234343EA02130C2252
S2140159C0424302F1B0421363012C02BF8A78024BB4
S2140159D043F8202010BD00BFD080035008B54FF01B
S2140159E0B0435A686AB958B15B680BB11FF0EFFF54
S2140159F001210D4B59601FF0EAFF4FF0B043D9600B
S214015A0008BD5B680BB11FF0E2FF0028F0D11FF064
S214015A10DEFF4FF0B0430222DA601FF0D8FF01220A
S214015A20024B5A60ECE700BF0010005800200058F7
S214015A304FF0B0414B6810B50BB11FF0C8FF012203
S214015A400B4BC4785A608378934043EA84034478C6
S214015A502343047943EA0413447943EAC4038B607D
S214015A60044B5A600378C3F10203CB6010BD00BF3C
S214015A700020005800100058054B5B69C3F38512DF
S214015A80827003F03F021B0B42700370704700BF29
S214015A9000C0075040F6B732064B5B689BB2934294
S214015AA09FBF4FF47A72B3FBF2F3034AD05C88BF10
S214015AB0002070470080E00FE5240400014B986C3D
S214015AC0D96C70470080E00F0120034B9B680A33B6
S214015AD003F01F03984070470080E00F0D4B98427B
S214015AE008D1A3F50033C3F88411C36D43F08003D6
S214015AF0C3657047084B984204D1A3F51033C3F829
S214015B009411F2E7054B984204BFA3F52033C3F87E
S214015B10A411EAE70080055000C0055000000650B9
S214015B2070B5054616461C4619B90320FFF77CFAE0
S214015B300146402C1BD003D8DCB1202C1BD070BDF5
S214015B40602CFCD1042303FB06F2530803EB41133C
S214015B50B3FBF2F3094A203B02EAC303AA6822F028
S214015B606002AA60AA681443AC60EB61E7E706230B
S214015B70E9E71023E7E70823E5E700BFF8FF7F0022
S214015B80012200F580535A6040F6AA6341F20502ED
S214015B90436100230D498360C365C26000F500526E
S214015BA00361C361C364916409498365884203D173
S214015BB003650023436506E006498842F8D001F5EF
S214015BC080418842F4D0012353607047FFFF0100F3
S214015BD00080055000C0055070B50D46FFF7D0FF98
S214015BE0012300F580567360AB7C04461BB18368C5
S214015BF043F080438360EB7C1BB12046297DFFF791
S214015C006DFF2A8A6B7B20461343EA891343E360C0
S214015C102B7BD5E90112FFF783FF6B7D1BB1A368D0
S214015C2043F48033A360AB7D1BB1A36843F4004308
S214015C30A360EB7D2A7E1B07120502F4E00203F047
S214015C40E0431343A365697E1F4A8B1E012B1F4B3E
S214015C501DD8944217D002F58042944215D002F521
S214015C60804294420CBF02224FF0FF3203EB4213F4
S214015C70022041F2AC520329985020D10423F36547
S214015C802B78636170BD0022F0E70122EEE79442B3
S214015C9011D00F4A944210D002F5804294420CBFB4
S214015CA002224FF0FF3203EB4213022042F2AC52C3
S214015CB001299850E1E70022F5E70122F3E70422E3
S214015CC004F50053DA65DBE70080055000C0035099
S214015CD000C0055038B50446054D2AF07BF80FCCB8
S214015CE00FC594E80F0085E80F00002038BD00BFFF
S214015CF0F4C9002047F6FF739A42F0B572D0022924
S214015D0072D83A4B5B5C022B6ED8394DDF0005EB3F
S214015D10C304A17815F83330012938BF0121012BBE
S214015D2013D10025E078401AA84202D80844C0B230
S214015D30F0BD431B6668A0EB530336F91360964229
S214015D40D4BF1D4603F1FF30EEE760680028EFD0B0
S214015D50B0F90040944204DBB0F902409442B8BF67
S214015D60144683883D44FF2B19BFC8224FF0280CE8
S214015D70B0F90620B0F908C0A2EB04030CBF012657
S214015D80002693FBFCF333446E781BB29E4201DD82
S214015D90002B01DA731E1BB24FF47A7C01339BB2DF
S214015DA0071D5D1E2DB24FEAC50E00EBC505EA883C
S214015DB0AD689E4214FB025222EAE27202F15C02D4
S214015DC0B2FBFCF204DD37F8335001339542E8D2DA
S214015DD000EB0E039888904228BF1046884238BFD1
S214015DE00846A4E7FF20A3E70020A1E7E824040073
S214015DF0F4C900200229F0B560D8314B595C02295C
S214015E005CD8304B13F83100012816D103EBC103DF
S214015E109C78D878012C214638BF0121904294BF46
S214015E20C1EB0001C1EB0201001BCAB28242C8BF2E
S214015E3000225B6833F91200F0BD002A3CD003EB68
S214015E40C1035968002939D09878904202D3B1F934
S214015E500200F1E7DC78B1F900009442ECD95C78F5
S214015E608B88013CA3F1FF06734201F10405E4B2FD
S214015E70734101F10C07DEB2B44216D805EBC30339
S214015E804FF47A756A43B3F902405B68D21A04EBA1
S214015E90D47302EB630292FBF4F29042CCDBB1F9CD
S214015EA002009042C8DC10B2C6E737F833C05E1C69
S214015EB09445E3D33346DEE70348BDE70348BBE733
S214015EC0E8240400F4C900200CFEFFFF0080FFFF59
S214015ED008B50448FFF7FEFEBDE80840012029F09A
S214015EE07DBF00BFEC240400004870474CF500203D
S214015EF07FB50222084B0949CDE901234FF0007313
S214015F00CDE90313052301A94FF0FF30059329F0CE
S214015F1095FF07B05DF804FB006A18000002040054
S214015F202DE9F04103F0EAFF0128074624D904F0E1
S214015F3019F8051E03DA01242046BDE8F081204B3E
S214015F401B78002B3AD100244FF050081D4E06F165
S214015F5010033046C6E90044B360C6F80C8004F06E
S214015F60C9F8306680B90124012FE5D9284604F026
S214015F701BF80028E0DADEE7114B1B7803F0FF057B
S214015F80002BE0D00024D7E70F4E214606F1100380
S214015F9032460120C6E90044C6E9023804F074F925
S214015FA030660028DFD00321012001F0F9FD012031
S214015FB001F0DAFD0122024B1A70D5E70024D5E77D
S214015FC0BFEE002078CA002014CA002008B503F0EE
S214015FD095FF022809D1064B4FF0FF31186E04F0E9
S214015FE0D3F8003818BF012008BD0020F9E700BF2C
S214015FF078CA002008B503F081FF022807D1054BB7
S214016000186E04F0F1F8003818BF012008BD002012
S214016010F9E700BF78CA002008B54FF098435B6CDB
S214016020D90208D503F06AFF0238012803D8094BC4
S214016030186E04F0B7F94FF098435A6CD202FCD5AB
S2140160405B6D054A03F4702313600120BDE8084028
S21401605001F098BD14CA002068F3002010B504466C
S21401606000283BD0FFF7B2FF002838D120461FF0AA
S2140160706CFF94F8203043B94FF098435A6CD20223
S214016080FCD55C6D04F4702412E04FF09844A36DC7
S21401609043F00203A36503F031FF022810D0A36D7D
S2140160A023F00203A3654FF4A0220D4B1C681A606F
S2140160B0FFF7A0FF9CB12046BDE810401FF00BBDC6
S2140160C0084B4FF0FF31186E04F036F9A36D23F03C
S2140160D00203A3650028E6D0012000E0212010BDC0
S2140160E068F3002014CA00202DE9F0418CB08846E0
S2140160F0DDE912761D460446002847D0002945D022
S214016100002F43D0002E41D013F00F033ED120487C
S2140161102049A360002A08BF0146E361C4E90013D1
S214016120404609A91FF0C4FD68BB204609991FF027
S21401613003FF294620461FF0FFFE694640461FF032
S21401614065FE00BB694620461FF0E2FE404603A9F5
S2140161501FF067FEB8B9204603A91FF0D9FE0697BF
S2140161600127204645F0005506A9079708951FF018
S214016170CFFE204609A909960A970B951FF0D2FE75
S2140161802046FFF76BFF0CB0BDE8F0812120FAE74F
S21401619000010004000101042DE9F0418CB088469D
S2140161A016461D460446129F00284BD0002949D0AA
S2140161B0002A47D0002F45D00B68103B102B41D842
S2140161C0214A22FA03F3D9073CD500231F4A8360EC
S2140161D0C0E90023C36109A940461FF069FD70BBF1
S2140161E0204609991FF0A8FE294620461FF0A4FE66
S2140161F0694640461FF00AFE08BB694620461FF066
S21401620087FE404603A91FF00CFEC0B9204603A92D
S2140162101FF07EFE06960126204606A945F000558B
S214016220079608951FF074FE094B204609A90997A1
S2140162300A960B931FF076FE2046FFF70FFF0CB071
S214016240BDE8F0812120FAE7010101000000040405
S21401625010000020F0B50C4617461E46054695B0C0
S214016260002874D0002972D0002A70D0002B6ED07E
S214016270036B0F2B5BD80023364A3846C4E900234C
S214016280A360E36111A91FF013FD00285BD120462E
S21401629011991FF051FE296B20460F2984BF01F08A
S2140162A00F0110311FF048FE384602A91FF0AEFD5F
S2140162B0002848D1204602A91FF02AFE384605A923
S2140162C01FF0AFFD00283ED1204605A91FF020FE95
S2140162D00122214B089509920A932B6B05F11000B8
S2140162E003F00F0141F000510B900F2B0C920D9112
S2140162F00E900F9243F00052109226D90A9B08A9DD
S21401630023F0005320460A931FF002FE0BA92046F5
S2140163101FF0FEFD0123119612930F4B204611A983
S21401632013931FF0FFFD2046FFF798FE0BE000F1E8
S2140163302003019000930122102339462046FFF7DF
S214016340D3FE002897D015B0F0BD0EA9DFE72120B7
S214016350F9E700BF00000404100000202DE9F04F0B
S2140163609BB00C4690461F460546DDF890900028E7
S21401637000F0B280002900F0AF80002A00F0AC8067
S214016380002B00F0A980026B02EB09031B09B3EB9B
S214016390121F02F00F0600F0978000234F4A8B6011
S2140163A0C1E90023CB61404617A91FF081FC0346D3
S2140163B0002840F0858006EB090B204617992BF044
S2140163C00F0A1FF0B9FD514620461FF0B5FD4046A5
S2140163D002A91FF01BFD0346002871D1204602A921
S2140163E01FF096FD404605A91FF01BFD0346002839
S2140163F066D14FF00108019005A920461FF088FDDF
S214016400374A204608A90895CDF824800A921FF03D
S2140164107FFD46F00051AAEB060605F1100346F093
S21401642000560B93CDF830800D910E97CDF83C8039
S21401643010960D99204621F000510D910BA900935D
S2140164401FF066FD20460EA91FF062FD019B244A3F
S2140164501193AAF1100343F00053CDF8488013932B
S21401646005F120031493CDF854801692139B204611
S21401647043F080431393139B11A923F00053139306
S2140164801FF050FD204614A91FF04CFD144A17A911
S21401649020461795CDF8608019921FF043FD2046DF
S2140164A0FFF7DCFDAAEB0B0149440190ABEB0A02B6
S2140164B0009839442AF097F9019B2A6B4A442A63CB
S2140164C018461BB0BDE8F08F10304A4639463044B6
S2140164D02AF089F90023F0E72123F1E703020004FB
S2140164E0100000202DE9FF474FF000080E46174622
S2140164F00446CDF80080002859D022B90025284648
S21401650004B0BDE8F087002951D032F0030902F04B
S214016510030A1FD04FF0E063C0E900380123019160
S214016520C0F808800293C0F81C8049F0005301A906
S21401653003931FF0F7FC494620461FF0FDFC20465A
S214016540FFF78CFD054628B14A46414630462AF0FB
S21401655024F9D4E7BAF1000FD0D04FF000084FF07D
S214016560E063C4E900380123CDF804D00293114B4F
S214016570204601A9C4F80880C4F81C8003931FF0C4
S214016580D1FC042120461FF0D7FC2046FFF766FD0C
S214016590054608B13A46D8E7009A4E44EB00013565
S2140165A022FA03F3AA4506F8013BF7D1A6E721250F
S2140165B0A5E700BF04000020F0B50F4616461D46AD
S2140165C0044693B010B9212013B0F0BD0029FAD0CB
S2140165D0002AF8D0002BF6D0002331461A4638465A
S2140165E01FF00BFB0028EFD1304602A91FF0B0FACE
S2140165F00028E9D138683449029A88426B695ED12D
S2140166009342E0D32B68002BDDD14FF06062384611
S214016610C4E90023A360E36101A91FF049FB002838
S214016620D2D10199204621F4F06101911FF084FC3A
S214016630694628461FF03CFB0028C5D12046009934
S2140166401FF07AFC384609A91FF0E0FB0028BBD1F1
S214016650204609A91FF05CFC38460CA91FF0E1FB97
S2140166600028B1D120460CA91FF052FCEB684BB1B3
S214016670284606A91FF0CAFB0028A5D1204606A970
S2140166801FF046FC304603A91FF0CBFB00289BD128
S214016690204603A91FF03CFC28460FA91FF0C1FBAA
S2140166A0002891D120460FA91FF03CFC0325204667
S2140166B0FFF7D4FC012887D1013DF8D184E7B3EB7D
S2140166C0420F9FD27FE700BF200000B070B50E4694
S2140166D0154604468AB000285CD000295AD0002A04
S2140166E058D0012329461A4630461FF086FA00285C
S2140166F04ED1B36813F4C04F4CD0AB6803F4C0431B
S214016700B3F5005F46D1254BA060C4E90030E061D7
S21401671007A930461FF0CCFA002839D12046079940
S2140167201FF00AFC012302934FF00053204601A9F3
S21401673003931FF0EDFB304604A91FF072FB38BB34
S214016740204604A91FF0E4FBEB681BBBAB6803F40F
S214016750C043B3F5005F1DD1694628461FF01BFAFA
S214016760B0B9009B6A699A4216D32A6943F000536E
S21401677007920122204607A90892032509931FF0D4
S214016780D1FB2046FFF76AFC012801D1013DF8D173
S2140167900AB070BD2120FBE71D20F9E700000102C9
S2140167A01FB5044698B191B100230A4A8360C0E937
S2140167B00023C361012301910293074B01A90393AF
S2140167C01FF0B0FB2046FFF749FC04B010BD2120A6
S2140167D0FBE700BF000008430400002038B5134D56
S2140167E0FFF79EFB124B134A1349144805F038FC79
S2140167F02B7803F0FF04BBB903F080FB012802D914
S21401680003F0B0FB04462B782BB90D4B0D481B68E3
S214016810984701232B7003F071FB012804D9204609
S214016820BDE8384003F0C0BB38BD00BFC0EE002055
S214016830855F0300AB5F0300EB5F0300D55F0300DA
S21401684084F3002018D9002006289ABF014B185C53
S21401685000207047D825040030B5154B87B0029349
S214016860144B0390049346F611030D46059300F06E
S21401687077F91428044616D168461FF049FC4FF0F4
S214016880A843032202A95A6319601D619A63DA6B51
S2140168909207FCD1142C02D168461FF047FC00F089
S2140168A0D5F9044601E00028E9D0204607B030BDFE
S2140168B0DCCA0020040000202DE9F04FB1B00546E7
S2140168C08C469E46E8466F4EDDF8EC90409C06F1FD
S2140168D0100A474630687168083603C75645B846F9
S2140168E0F7D13E9B03EB0208C8F1000A0AF00F0A33
S2140168F0B9F1000F00F09D80C9F1000707F00F07FE
S2140169000121DDF8FCB044F00050C4F11006CDF8CA
S21401691010B005910690300200F4F85040F02100C6
S2140169200790B9F1000F40F08680CDF820D047F0EF
S2140169300050002D00F08480099121210A9041EA3F
S21401694007210B9142F00050CDF830C03D9B08A9BD
S2140169504FEA0A2C0D910E904CF041000F901093C7
S214016960002A75D13E9B119143F0005312933C9B34
S2140169701390149310AB1593434B444A169340F669
S21401698011031793424B0021002D08BF134618939D
S21401699014AB19933F4B10221A9311231B931CAB74
S2140169A0184629F0FAFE01221D92002246F0804682
S2140169B003461E96239205B9EB46102CCDF880B0FF
S2140169C024AE4BD101232246002130462193229446
S2140169D029F0E3FE20AB002125938F4218BF3346F2
S2140169E047F0804226923A9A2CA828922993B2FA26
S2140169F082F35B0949EA837310222B912A9329F0CB
S214016A00CCFEB9F1000F00D028AED04448F0804348
S214016A102CA918A82D962E93FFF71EFF30B92DB975
S214016A200346A34225D1002818BF2C2031B0BDE86B
S214016A30F08F102764E7CDF820E049F0005078E7A2
S214016A40002C3FF479AF04A9099101210A9076E759
S214016A503E9B0CAA11924120129388E71022002136
S214016A6030462193229429F098FE002CB2D10123BE
S214016A70B1E703F1C0026A4412F8C02C0133104397
S214016A80CFE700BFDF25040010000020F425040036
S214016A90F825040004000020F0B5C0299FB0DDE908
S214016AA0244557D0B1F5807F04D0802948D02920CD
S214016AB01FB0F0BD01265CB140F2344702941024A9
S214016AC003960494212401970594069502AC0AE0E6
S214016AD040F214470294102403960494212405944A
S214016AE00124019706950794012510240894099519
S214016AF00A9221220B950C940D92174A0AAD0E921A
S214016B00164A0F95109242F611021192129313959E
S214016B101494159201AA1692D3B112AB17930423BB
S214016B2018931123199316AB1A901B9340F6110371
S214016B30C9081C911AA806A91D93FFF78DFEB7E791
S214016B40012614B94FF48267C4E74FF48667B5E7A8
S214016B500EABE3E70F20ABE7F025040010000010B2
S214016B60354AF8B5D2F8803243F00103C2F88032D4
S214016B70324B5B68C3F308033BB14FF0A842D36BBB
S214016B8013F0430FFBD11420F8BD2D4F3B789BBB70
S214016B9003F0B4F90128064617D83B7803F0FF0442
S214016BA053BB0023274DC5E9003305F11003AB6045
S214016BB050232846EB6003F09DFA286690B1012326
S214016BC09E423B7018D9204606E003F0CBF9041E1E
S214016BD030DB3B78002BE4D003F0E6F900280BDA33
S214016BE00220D1E7012E01D80120CDE7204603F08F
S214016BF0DBF90028F8DAF3E703F080F902280DD074
S214016C00114C23681BB90421204604F04DFF23686C
S214016C100020013343F000432360B5E7094B4FF0F2
S214016C20FF31186E03F0B0FA002814BF01200020CF
S214016C30AAD1E5E70D20A7E70080005000ED00E0AF
S214016C40C1EE0020E0CA0020DCCA00200A4B10B5C5
S214016C505C68C4F3080464B903F050F9022804D14F
S214016C60064B186E03F0C0FA0446201E18BF01201A
S214016C7010BD0020FCE700BF00ED00E0E0CA0020E8
S214016C80012300F01F02A0F506200949A0F5506077
S214016C904009934051F820201A4341F82020054925
S214016CA051F8202022EA030241F82020704700BF55
S214016CB058CB002044CB00200121A0F506230E4A24
S214016CC0A3F550635B0900F01F00814052F82300D2
S214016CD0014342F823100949D1E90030034488688A
S214016CE00344C868096903445B1802BFC2E900335C
S214016CF0C2E902331361704744CB002058CB002011
S214016D002DE9F04FA9B003921D4604460822339E92
S214016D10CDE90401414021FA02F34B40980702F104
S214016D20080218BF9B00202A1C44F4D18123B4FB1F
S214016D30F3F303EBC313E41A734B04F506241B7831
S214016D4004F55064002B3ED1FDF702FF074620B143
S214016D506FF0910029B0BDE8F08F0146402208A8E7
S214016D6029F01BFD4022394618A829F016FDDFF848
S214016D70B481DFF8B491C3460BF10F0ACDF800A039
S214016D80102208A95B46D9F8000028F0D4FD00229D
S214016D90014608F1100808AF914246D1CDF800A08F
S214016DA05B461022D9F8000018A928F0CDFD4FF057
S214016DB0000A834618AFD34541D1544B9845DAD1E2
S214016DC00122514B1A704FF0810A4FF00008DFF88C
S214016DD05CB1A4F50627A7F550635B095BF8232091
S214016DE004F01F01CA40D2073DD4494A52F8233065
S214016DF0CB40DB072AD5B8F1000F08BFA046812398
S214016E00A7F6FF47B7FBF3F303EBC313FF1A07F528
S214016E100624BAF1010A04F55064DAD1039BBBB12A
S214016E20B8F1000F14D0444619E057F8040BCDE929
S214016E300612FFF725FF079A06990132ACE757F8C5
S214016E40040BFFF739FF0AF1010AB4E7039B13B9F4
S214016E506FF08B007EE7B8F1000F18BF4446349BF5
S214016E6000201C6076E7329B13B10023329A136030
S214016E700EB1002333601023DFF8AC9000932A464E
S214016E8000232146D9F8000015F08AFD60BB32992F
S214016E902A68204BC9B99A4206D02146D9F8000083
S214016EA015F016FE0028D3D1D5E90223DDE904103A
S214016EB0834208BF8A42A2D1039B002BCFD06B68C6
S214016EC0012BCCD16FF0840044E7102032999A420E
S214016ED00860E2D1002EE7D033462146D9F80000FB
S214016EE018AA15F0B1FD48B10B4B9842D5D00B4B03
S214016EF09842D2D00A4B9842D6D029E7329A3368C4
S214016F0012689B1A3360CFE7C2EE002000710800BA
S214016F1044CB0020105D175EFFDF00F011E000F0AB
S214016F20FEDF00F0006D080064F3002058CB00205F
S214016F3070B5124D2B7803F0FF04CBB902F0DEFFDB
S214016F40012802D903F00EF804462B784BB90C48F9
S214016F50436D43F0010343650A4B1B6898470123C1
S214016F602B7002F0CBFF012802D9204603F01CF853
S214016F70BDE87040044B02481B681847C3EE00206A
S214016F806CCB002084F300207CF30020034B1B789D
S214016F901BB1034B03481B6818477047C3EE00201C
S214016FA078F300206CCB00202DE9F04F87B08246A5
S214016FB0894698461646DDF840B02AB1002B53D0D4
S214016FC040F26C739A4252D8BBF1010F52D800249A
S214016FD006F110073946012005941FF01BFF0546F0
S214016FE000284AD021463A4629F0D7FBFFF7A0FFF2
S214016FF005ABCDE9014300942B4601225046494694
S214017000FFF77EFE044690B110F18C0F08BF6FF0BB
S2140170108D043A460021284629F0BFFB28461FF07A
S214017020DBFEFFF7B3FF204607B0BDE8F08F144B39
S214017030C5E902A92B60C5F804B02EB13246414617
S21401704005F1100029F0CFFB059E0E483B462A4667
S2140170503146006815F00CFC18B93046FFF710FEF3
S214017060D7E76FF09104D4E76FF08604DBE76FF0A3
S2140170709104D8E76FF08504D5E76FF08C04D2E76A
S214017080105D175E64F300202DE9F0478CB0814651
S214017090DDE914780C4616461D466BB1B8F1000FB3
S2140170A049D0002F47D0B7F1005F44D3C3F1005356
S2140170B003F5C0339F423ED84FF0000A102200214C
S2140170C008A829F06AFBCDE905AAFFF731FF07AB4F
S2140170D0029305AB019306AB214600935246484600
S2140170E008ABFFF70DFE0446D0B9059B3DB1B34290
S2140170F01CD853EA060504D06FF0860410E0B342AC
S214017100FAD3069B0D48C8F8005000953A460799F1
S2140171100068334415F044FC002818BF6FF0910452
S214017120FFF734FF20460CB0BDE8F0879B1B9D425D
S21401713028BF1D46E5E76FF08604F3E764F30020F9
S21401714070B500260C4605468CB01022002108A812
S21401715029F023FBCDE90566FFF7EAFE07AB0293AC
S21401716005AB019306AB214600933246284608AB91
S214017170FFF7C6FD0446D8B9099B012B1DD0079D14
S214017180114B2946186815F0A3FCC8B90122A5F5CC
S21401719006230E49A3F550635B0905F01F008240E4
S2140171A051F823004240284641F82320FFF784FD8A
S2140171B0FFF7ECFE20460CB070BD6FF08404F7E7D5
S2140171C06FF09104F4E700BF64F3002058CB002071
S2140171D02DE9F04F95B00446DDE92075DDE922681A
S2140171E09346DDE91E028A46DDF8909029B96FF0D4
S2140171F08604204615B0BDE8F08FBBF1000FF6D02F
S2140172000FB9002DF3D108B9002AF0D116B9B8F19B
S214017210000FECD1B9F1000FE9D02C4A934251D1BD
S2140172202388B3F5105F4DD1242200210BA829F045
S214017230B4FA2022002103A829F0AFFA0BA81EF009
S21401724078FC10B16FF09204D3E720465A465146B7
S21401725003AB1EF0D5FF04460028CAD103981EF0E2
S214017260C3FF04460028C4D115B9C9F80050C0E7C9
S214017270B74224D27B199E4221D24545B7D839461A
S2140172802A46304629F06FFA374615F00F0AAED176
S214017290CDE900762B46524603A90BA8FEF724FF3C
S2140172A007460028E1D042465146304629F075FA95
S2140172B0012FC9F800A0C5D16FF08B0499E74545A9
S2140172C0E3D994E76FF0850493E700BF00444004D8
S2140172D02DE9F04FB3B00C4605460021164601A82D
S2140172E0202298463C9FDDF8009129F056FA20228C
S2140172F0002109A829F051FA2022002111A829F01D
S2140173004CFA2422002119A829F047FA00213C2230
S21401731023A8229129F041FA34B12EB127B13E9B20
S21401732013B1B9F1000F05D16FF08604204633B0D2
S214017330BDE8F08FB4F800B0B4F802A00BF4E04357
S214017340B3F5804FF0D0384B384A2B4043F01063EA
S214017350934202D06FF08504E8E70AF10703B8EB21
S214017360D30F4FEAD305DFD33F9B9D4258D819A8C8
S2140173701EF0DFFB10B16FF09204D7E700236946D9
S21401738019A80093FFF70CFA0028F4D1009B284AAD
S21401739023F07F4393420093DCD947F212139B45B7
S2140173A0D8D1BAF5807FD5D1224B013709933D9BC1
S2140173B00C90023323F003030E93402316936B00C5
S2140173C00D971490129320464246314622AF01ABE8
S2140173D015971EF015FF04460028A7D10B9B1190A8
S2140173E043F4005319A80B931EF0A3FB0028C2D147
S2140173F011AB09AA01A919A8FFF7DEF8064610B1D4
S214017400482891D1A6E72A4639463E9829F0EBF955
S2140174103346BB550136402EFBD1C9F8005085E7EF
S2140174206FF0890482E700BF0000FFF60000020942
S2140174300102010020000080F8B5134642880C4680
S2140174400732072A4FEAD20101D0A1424DD1466840
S2140174500588C76820221846002129F09EF9360AB9
S2140174600346002E44D1002C3FD041F20102954242
S21401747005D0B5F5885F02D0B5F5905F02D15C60A6
S214017480002011E0B5F5105F07D1182C03D0202C91
S21401749001D0102C29D11C60F1E705F44F42B2F55A
S2140174A0824F02D06FF08500F8BDEAB2122AF9D1F8
S2140174B0202CF7D1104A25F0FF05B5F5E24F026002
S2140174C00CD0B5F5824F10D14FF4005217F4705F0F
S2140174D009D017F4864F04D09A60E3E74FF4804250
S2140174E0F4E742F480629A60CAE76FF08600DBE751
S2140174F06FF08B00D8E700BF200000802DE9F04F29
S2140175009A460388144603F44F42B5B0B2F5824F4B
S2140175100F46DDF8009102D06FF0850056E011B9F4
S2140175206FF0860052E0002CFAD0B9F1000FF7D0C8
S214017530DAB2122AF0D123F0FF03B3F5E24F34D1C9
S2140175404388C9F800305BBBE300C9F80030B3F5E7
S214017550807FE1D10023184655493D19214411F891
S214017560016D15F8012D1043921B0CBF4FF0FF362D
S2140175700026AF4203EA060343EA0203EFD10028DE
S214017580CED0002BCCDA3E9B9C4200F28E80224667
S2140175903946504629F027F93F9B00201C6015E02C
S2140175A0DA1DB4EBD20FD2D0BAE7B3F5824F79D158
S2140175B00B78042BB4D1242200211AA829F0EDF867
S2140175C01AA81EF0B6FA20B16FF0920035B0BDE8E9
S2140175D0F08F019001A91AA8FFF7E2F80028F3D16D
S2140175E0019B344A23F07F43934295D94FF000081C
S2140175F03E22414624A8CDF88C8029F0CEF80123FE
S2140176004FF0420B2022414602A88DF88C30651EB1
S21401761029F0C3F87B1C202241460AA8069323AE14
S214017620079529F0BAF82022414612A80E96CDF801
S2140176303CB029F0B2F8EA005208B2F5807FCDE9F5
S214017640166BC9F800200BD003D8E02A3FF464AFCC
S21401765066E7B2F5C07F3FF45FAFB2F5047FF5E7AA
S214017660154B02AA02930A934FF4005304934FF466
S21401767080430C9340230AA913931AA812ABFEF772
S2140176809BFFD9F800300733DB085A0033B1531E8D
S214017690013B86F8008006F10106F9D200283FF486
S2140176A072AF3DE76FF0960090E76FF089008DE7C7
S2140176B0FC25040001020100200000802DE9F04FA6
S2140176C091B0DDF8688081460C4692469B461C9F29
S2140176D0B8F1000F05D16FF08604204611B0BDE861
S2140176E0F08F002FF7D00028F5D02422002107A81C
S2140176F029F053F807A81EF01CFA10B16FF0920497
S214017700EBE714F47C1FC4F305452AD0102DE2D80C
S2140177101B9B9D4233D81D4B24F47E149C4231D1D1
S214017720002303AECDE90333CDE9053352465B466C
S2140177304946009607A8FEF72FFD044698B92A4643
S2140177403146404629F04FF8234633550134102C74
S214017750FBD100243D6007A81EF0F5F90028BCD037
S214017760CCE71025D4E7212806D0012814BF6FF0F6
S21401777092046FF08B04EEE76FF08604EBE76FF090
S2140177808904AAE76FF08504A7E700BF0002C003DB
S21401779070B50E461446054610B96FF0860070BDEA
S2140177A00029FAD03822002128F0F7FF094B24F4EB
S2140177B07E129A420AD13388B3F5105F06D1C4F31C
S2140177C00543102BE9D800202C60E8E76FF0850010
S2140177D0E5E700BF0002C003F0B50F4616461D469A
S2140177E004468DB088B302B97BBB2422002103A8CE
S2140177F028F0D3FF03A81EF09CF920B16FF0920485
S21401780020460DB0F0BD2368114A23F47E1393423F
S21401781015D135B9002403A81EF095F90028EFD03C
S214017820ECE733463A46009503A9201DFEF796FD80
S214017830012807D00028EDD06FF09204EBE76FF037
S2140178408804E8E76FF08B04E5E76FF08604D7E776
S2140178500002C0032DE9F0418EB0884616461D464B
S2140178600446149F002840D0002A3ED0002B3CD06E
S214017870002F3AD0102B036828BF102513F47C1F65
S214017880C3F3054202D0954228BF15461A4A23F48F
S2140178907E1393422CD12422002105A828F07DFFD7
S2140178A0002305A8CDE90133CDE903331EF041F9E4
S2140178B040B9424601AB05A9201DFEF7CBFC30B10D
S2140178C000233B606FF092000EB0BDE8F08105A882
